:0400000007EF00F016
:100008007482D2ED07F063EF17F08CEC1DF0000E50
:1000180001016C6F000E6B6F6B51080F116E540E5F
:100028006B25D96E010E6C21DA6EDF50126EA20EAE
:1000380088EC14F001016B4B6C2B6CBF2DEF00F0BA
:100048006C5109E1050E6B5DD8A02DEF00F02FEF84
:1000580000F010EF00F0210EE82EFED700F0080E99
:10006800116E060E126EA60E88EC14F0210EE82E04
:10007800FED700F0F50E276E000E286E010E296ED1
:10008800010E2A6EEB0E2B6EFE0E2C6EE2EC14F0B7
:100098006F6EF50E276E000E286E020E296E010E89
:1000A8002A6EE30E2B6EFF0E2C6EE2EC14F06F6ED0
:1000B800590E156E010E166E6A0E176E000E186E2A
:1000C800CEEC10F06F6E2A0E6A18D8A46EEF00F00E
:1000D80070EF00F07DEF00F03DEC10F0F50E186EBB
:1000E800000E196E010E1A6ED3EC16F06F6E010E2B
:1000F800566E5604D8A483EF00F085EF00F05CEF4D
:1001080000F0000E6A6EF50E276E000E286E010EC6
:10011800296E010E2A6EAE0E2B6EFF0E2C6EE2ECCF
:1001280014F06F6EF50E276E000E286E020E296E03
:10013800010E2A6EBA0E2B6EFF0E2C6EE2EC14F036
:100148006F6EF50E276E000E286E030E296E010ED7
:100158002A6E110E2B6EFF0E2C6EE2EC14F06F6EF1
:10016800F50E276E000E286E040E296E010E2A6EFB
:10017800DA0E2B6EFF0E2C6EE2EC14F06F6E590E39
:10018800156E010E166E6A0E176E000E186ECEEC06
:1001980010F06F6E310E6A18D8A4D5EF00F0D7EFC3
:1001A80000F0C7EF01F0000E6A6EF50E186E000E33
:1001B800196E010E1A6ED3EC16F06F6E29EF01F06E
:1001C800F50E276E000E286E010E296E010E2A6E9E
:1001D800860E2B6EFF0E2C6EE2EC14F06F6EF50E91
:1001E800276E000E286E020E296E010E2A6E770EFB
:1001F8002B6EFF0E2C6EE2EC14F06F6EF50E276E70
:10020800000E286E030E296E010E2A6E950E2B6EB7
:10021800FF0E2C6EE2EC14F06F6E020E01016A6F95
:10022800040E696FBA0EE82EFED7692FFCD76A2F25
:10023800FAD700F0590E156E010E166E6A0E176E7B
:10024800000E186ECEEC10F06F6E6A50D8B42FEF17
:1002580001F031EF01F0E4EF00F0310E6A18D8A494
:1002680038EF01F03AEF01F06DEF01F0000E6A6E21
:10027800BCEC1CF0F50E186E000E196E010E1A6E0D
:10028800D3EC16F06F6EF50E276E000E286E010E79
:10029800296E010E2A6E590E2B6EFF0E2C6EE2ECA3
:1002A80014F06F6E030E01016A6F080E696F770E06
:1002B800E82EFED7692FFCD76A2FFAD7F50E186EED
:1002C800000E196E010E1A6ED3EC16F06F6E87EFE2
:1002D80000F0320E6A18D8A474EF01F076EF01F03E
:1002E80099EF01F0000E6A6E730E156E000E166E11
:1002F800E8EC18F06F6EF50E186E000E196E010E10
:100308001A6ED3EC16F06F6EF50E276E000E286E7F
:10031800010E296E010E2A6EC30E2B6EFE0E2C6E78
:10032800E2EC14F06F6E56EF01F0330E6A18D8A4A1
:10033800A0EF01F0A2EF01F0C5EF01F0000E6A6E28
:10034800710E156E000E166E24EC19F06F6EF50E18
:10035800186E000E196E010E1A6ED3EC16F06F6E41
:10036800F50E276E000E286E010E296E010E2A6EFC
:10037800240E2B6EFF0E2C6EE2EC14F06F6E56EF0F
:1003880001F087EF00F0320E6A18D8A4CEEF01F022
:10039800D0EF01F0A9EF02F0000E6A6EF50E186EAC
:1003A800000E196E010E1A6ED3EC16F06F6E22EF66
:1003B80002F0F50E276E000E286E010E296E010E52
:1003C8002A6E860E2B6EFF0E2C6EE2EC14F06F6E0A
:1003D800F50E276E000E286E020E296E010E2A6E8B
:1003E800770E2B6EFF0E2C6EE2EC14F06F6EF50E8E
:1003F800276E000E286E030E296E010E2A6E950ECA
:100408002B6EFF0E2C6EE2EC14F06F6E020E0101E3
:100418006A6F040E696FBA0EE82EFED7692FFCD7F3
:100428006A2FFAD700F0590E156E010E166E6A0E75
:10043800176E000E186ECEEC10F06F6E6A50D8B4BE
:1004480028EF02F02AEF02F0DDEF01F0310E6A1812
:10045800D8A431EF02F033EF02F051EF02F0000EB2
:100468006A6E77EC1CF0F50E186E000E196E010E10
:100478001A6ED3EC16F06F6EF50E276E000E286E0E
:10048800010E296E010E2A6E680E2B6EFF0E2C6E61
:10049800E2EC14F06F6E56EF01F0320E6A18D8A431
:1004A80058EF02F05AEF02F07DEF02F0000E6A6E8C
:1004B800720E156E000E166EE8EC18F06F6EF50EE3
:1004C800186E000E196E010E1A6ED3EC16F06F6ED0
:1004D800F50E276E000E286E010E296E010E2A6E8B
:1004E800D70E2B6EFE0E2C6EE2EC14F06F6E56EFEC
:1004F80001F0330E6A18D8A484EF02F086EF02F0F8
:10050800C5EF01F0000E6A6E700E156E000E166EC5
:1005180024EC19F06F6EF50E186E000E196E010EB0
:100528001A6ED3EC16F06F6EF50E276E000E286E5D
:10053800010E296E010E2A6E360E2B6EFF0E2C6EE2
:10054800E2EC14F06F6E56EF01F0330E6A18D8A47F
:10055800B0EF02F0B2EF02F085EF00F0000E6A6E25
:10056800F50E186E000E196E010E1A6ED3EC16F009
:100578006F6EEDEF02F05BEC1BF021EE14F0050E50
:10058800EBCFDBFFE806FCE257EC12F01A0E010194
:10059800696FF80EE82EFED7692FFCD700F0F50E2C
:1005A800276E000E286E030E296E010E2A6ED00EDD
:1005B8002B6EFF0E2C6EE2EC14F06F6E590E156E5A
:1005C800010E166E6A0E176E000E186ECEEC10F045
:1005D8006F6E2A0E6A18D8A4F4EF02F0F6EF02F054
:1005E800BFEF02F062EF01F007EF00F0000E01012B
:1005F800616F000E626F000E636F000E646F2BEF69
:1006080005F0AC98AC94B8964DC0D9FF4EC0DAFF4F
:10061800DECF4FF0DDCF50F04FC00CF050C00DF0E2
:100628000E6A0F6A000EA2EC0BF00CC01EF00DC093
:100638001FF00EC020F00FC021F0000E1A6E240E1D
:100648001B6E740E1C6E4A0E1D6ED5EC09F01AC096
:1006580065F11BC066F11CC067F11DC068F1000E92
:100668001E6E000E1F6E800E206E420E216E65C13A
:100678001AF066C11BF067C11CF068C11DF0D5EC0B
:1006880009F01AC033F01BC034F01CC035F01DC08F
:1006980036F0000E376E000E386E800E396EBF0EC3
:1006A8003A6E72EC05F033C061F134C062F135C0C6
:1006B80063F136C064F156EF05F0AC98AC84B89697
:1006C8004DC0D9FF4EC0DAFFDECF4FF0DDCF50F07E
:1006D8004FC00CF050C00DF00E6A0F6A000EA2EC6D
:1006E8000BF00CC01EF00DC01FF00EC020F00FC0A4
:1006F80021F0000E1A6E240E1B6E740E1C6E4A0E2C
:100708001D6ED5EC09F01AC065F11BC066F11CC05E
:1007180067F11DC068F1000E1E6E000E1F6E800E80
:10072800206E410E216E65C11AF066C11BF067C1CB
:100738001CF068C11DF0D5EC09F01AC033F01BC0DD
:1007480034F01CC035F01DC036F0000E376E000EB8
:10075800386E800E396EBF0E3A6E72EC05F033C0FB
:1007680061F134C062F135C063F136C064F156EF0F
:1007780005F0AC98AC94B8864DC0D9FF4EC0DAFFEE
:10078800DECF4FF0DDCF50F04FC00CF050C00DF071
:100798000E6A0F6A000EA2EC0BF00CC01EF00DC022
:1007A8001FF00EC020F00FC021F0000E1A6E240EAC
:1007B8001B6E740E1C6E4A0E1D6ED5EC09F01AC025
:1007C80065F11BC066F11CC067F11DC068F1000E21
:1007D8001E6E000E1F6E800E206E410E216E65C1CA
:1007E8001AF066C11BF067C11CF068C11DF0D5EC9A
:1007F80009F01AC033F01BC034F01CC035F01DC01E
:1008080036F0000E376E000E386E800E396EBF0E51
:100818003A6E72EC05F033C061F134C062F135C054
:1008280063F136C064F156EF05F0AC98AC84B88635
:100838004DC0D9FF4EC0DAFFDECF4FF0DDCF50F00C
:100848004FC00CF050C00DF00E6A0F6A000EA2ECFB
:100858000BF00CC01EF00DC01FF00EC020F00FC032
:1008680021F0000E1A6E240E1B6E740E1C6E4A0EBA
:100878001D6ED5EC09F01AC065F11BC066F11CC0ED
:1008880067F11DC068F1000E1E6E000E1F6E800E0F
:10089800206E400E216E65C11AF066C11BF067C15B
:1008A8001CF068C11DF0D5EC09F01AC033F01BC06C
:1008B80034F01CC035F01DC036F0000E376E000E47
:1008C800386E800E396EBF0E3A6E72EC05F033C08A
:1008D80061F134C062F135C063F136C064F156EF9E
:1008E80005F0AC88B8964DC0D9FF4EC0DAFFDECF10
:1008F8004FF0DDCF50F04FC00CF050C00DF00E6A35
:100908000F6A000EA2EC0BF00CC01EF00DC01FF019
:100918000EC020F00FC021F0000E1A6E240E1B6EC0
:10092800740E1C6E4A0E1D6ED5EC09F01AC065F1E6
:100938001BC066F11CC067F11DC068F1000E1E6E79
:10094800000E1F6E800E206E400E216E65C11AF0DB
:1009580066C11BF067C11CF068C11DF0D5EC09F039
:100968001AC033F01BC034F01CC035F01DC036F07F
:10097800000E376E000E386E800E396EBF0E3A6E5E
:1009880072EC05F033C061F134C062F135C063F137
:1009980036C064F156EF05F0AC88B8864DC0D9FF73
:1009A8004EC0DAFFDECF4FF0DDCF50F04FC00CF075
:1009B80050C00DF00E6A0F6A000EA2EC0BF00CC0CE
:1009C8001EF00DC01FF00EC020F00FC021F0000E69
:1009D8001A6E240E1B6E740E1C6E4A0E1D6ED5EC1C
:1009E80009F01AC065F11BC066F11CC067F11DC093
:1009F80068F1000E1E6E000E1F6E800E206E400EF7
:100A0800216E65C11AF066C11BF067C11CF068C190
:100A18001DF0D5EC09F01AC033F01BC034F01CC02F
:100A280035F01DC036F0000E376E000E386E800EA1
:100A3800396EBF0E3A6E72EC05F033C061F134C006
:100A480062F135C063F136C064F156EF05F020EE6F
:100A580002F04D50D9264E50DA22DF504F6E506AC0
:100A68005050000AD8B43BEF05F056EF05F04F5050
:100A7800000AD8B405EF03F0010AD8B461EF03F017
:100A8800030AD8B4BDEF03F0010AD8B419EF04F093
:100A9800070AD8B475EF04F0010AD8B4D0EF04F00F
:100AA80056EF05F061C143F062C144F063C145F0FF
:100AB80064C146F056EC11F04350AF6E61C143F08B
:100AC80062C144F063C145F064C146F056EC11F0D0
:100AD80044C043F0446A4350B06E12003650800B55
:100AE8003F6E36503624416E35AE7DEF05F07FEF10
:100AF80005F080EF05F041804150D8B486EF05F04D
:100B080088EF05F09DEF05F04128D8A48EEF05F099
:100B180090EF05F098EF05F0000E336E000E346E7E
:100B2800000E356E000E366E358E000E366EA5EF51
:100B380005F0000E336E000E346E000E356E000E9A
:100B4800366E3A50800B406E3F504018D8B4AFEF25
:100B580005F0B1EF05F0B2EF05F03F8C3A503A24BA
:100B6800406E39AEBAEF05F0BCEF05F0BDEF05F009
:100B780040804050D8B4C3EF05F0C5EF05F0DAEF78
:100B880005F04028D8A4CBEF05F0CDEF05F0D5EF60
:100B980005F0000E376E000E386E000E396E000E2E
:100BA8003A6E398E000E3A6EE2EF05F0000E376E9F
:100BB800000E386E000E396E000E3A6E4150405CE1
:100BC800D8B0E9EF05F0EBEF05F012EF06F03FAC17
:100BD800F0EF05F0F2EF05F0F4EF05F0800E3F1AA4
:100BE80041C042F040C041F042C040F033C042F042
:100BF80037C033F042C037F034C042F038C034F068
:100C080042C038F035C042F039C035F042C039F042
:100C180036C042F03AC036F042C03AF0000E426E9A
:100C2800415040C03BF03C6A3B5E000E3C5A3CBE23
:100C380027EF06F03C5009E11A0E3B5CD8A027EFDD
:100C480006F029EF06F060EF06F033503410351047
:100C58003610D8A432EF06F035EF06F0010E36EF65
:100C680006F0000E426E000E336E000E346E000E5B
:100C7800356E000E366E40C041F069EF06F042A0B6
:100C880048EF06F04AEF06F050EF06F0D8904230F1
:100C98000109426E52EF06F0D890423233A057EF66
:100CA80006F059EF06F05AEF06F0428E3634363227
:100CB800353234323332412A4050415CD8A067EF94
:100CC80006F069EF06F043EF06F03FBC6EEF06F062
:100CD80070EF06F0B0EF06F04150D8A476EF06F0BA
:100CE80078EF06F082EF06F0000E336E000E346ED9
:100CF800000E356E000E366ED1EF07F037503326F2
:100D080038503422395035223A50362236A08FEFE7
:100D180006F091EF06F03DEF07F042A096EF06F0DF
:100D280098EF06F09EEF06F0D89042300109426E27
:100D3800A0EF06F0D890423233A0A5EF06F0A7EF57
:100D480006F0A8EF06F0428E3634363235323432A9
:100D58003332412A3DEF07F03750335C385034586E
:100D6800395035583650800A3B6E3A50800A3B5805
:100D7800D8B0C1EF06F0C3EF06F0EEEF06F033503F
:100D8800375C3B6E345038583C6E355039583D6EA0
:100D980036503A583E6EFF0E3B24336EFF0E3C2011
:100DA800346EFF0E3D20356EFF0E3E20366E800EEF
:100DB8003F1A426C4250D8A4E4EF06F0E6EF06F082
:100DC800F6EF06F0010E3326000E342235223622C5
:100DD800F6EF06F03750335E3850345A3950355AEA
:100DE8003A50365A3350341035103610D8A4FFEF25
:100DF80006F001EF07F036EF07F04250D8A407EFEE
:100E080007F009EF07F036EF07F0000E336E000E1B
:100E1800346E000E356E000E366ED1EF07F0D890A6
:100E2800333634363536363642AE1DEF07F01FEF0F
:100E380007F020EF07F0338042A025EF07F027EFF7
:100E480007F02BEF07F0D88042362DEF07F0D89047
:100E580042364150D8B433EF07F035EF07F036EF9C
:100E680007F0410635AE3BEF07F03DEF07F013EF13
:100E780007F0000E406E42AE44EF07F046EF07F071
:100E88005EEF07F042C03BF07F0E3B16D8B44FEF41
:100E980007F051EF07F055EF07F0010E406E5EEFD7
:100EA80007F033A05AEF07F05CEF07F05EEF07F0AA
:100EB80051EF07F04050D8B464EF07F066EF07F041
:100EC80091EF07F0010E3326000E34223522362228
:100ED80036A071EF07F073EF07F091EF07F033C01A
:100EE8003BF034C03CF035C03DF036C03EF03E34F7
:100EF8003E323D323C323B323BC033F03CC034F0F2
:100F08003DC035F03EC036F04128D8B48EEF07F02A
:100F180090EF07F091EF07F0412A4128D8B497EFF6
:100F280007F099EF07F0A1EF07F04150D8A49FEF21
:100F380007F0A1EF07F0B3EF07F0000E336E000ED5
:100F4800346E000E356E000E366E4150D8A4AFEFE9
:100F580007F0B1EF07F0B3EF07F0000E3F6E41A0C6
:100F6800B8EF07F0BAEF07F0BDEF07F0358EBEEF28
:100F780007F0359ED8904130366E3FAEC6EF07F089
:100F8800C8EF07F0C9EF07F0368E33C033F034C02E
:100F980034F035C035F036C036F012000600FACF0E
:100FA80008F0FBCF09F0D9CF0AF0DACF0BF0F2A89E
:100FB800E0EF07F0E2EF07F0EBEF07F0F2A2E7EF60
:100FC80007F0E9EF07F0EBEF07F096EC1DF0F0A65D
:100FD800F0EF07F0F2EF07F0FBEF07F0F0A0F7EF04
:100FE80007F0F9EF07F0FBEF07F094EC1DF0F0A81D
:100FF80000EF08F002EF08F00BEF08F0F0A207EF9F
:1010080008F009EF08F00BEF08F092EC1DF0F2A6DB
:1010180010EF08F012EF08F02DEF08F0F2A017EF2C
:1010280008F019EF08F02DEF08F081A81EEF08F07E
:1010380020EF08F02DEF08F06E04D8A426EF08F092
:1010480028EF08F02DEF08F0000E6E6E000E4DEC44
:101058001DF0F2A632EF08F034EF08F04FEF08F079
:10106800F2A039EF08F03BEF08F04FEF08F081B835
:1010780040EF08F042EF08F04FEF08F06E50D8A4A8
:1010880048EF08F04AEF08F04FEF08F0010E6E6ED7
:10109800010E4DEC1DF0F2A654EF08F056EF08F0E3
:1010A80071EF08F0F2A05BEF08F05DEF08F071EF68
:1010B80008F081AA62EF08F064EF08F071EF08F019
:1010C8006D04D8A46AEF08F06CEF08F071EF08F02F
:1010D800000E6D6E000E40EC1DF0F2A676EF08F0E3
:1010E80078EF08F093EF08F0F2A07DEF08F07FEFBB
:1010F80008F093EF08F081BA84EF08F086EF08F063
:1011080093EF08F06D50D8A48CEF08F08EEF08F03C
:1011180093EF08F0010E6D6E010E40EC1DF0F2A683
:1011280098EF08F09AEF08F0B5EF08F0F2A09FEFFB
:1011380008F0A1EF08F0B5EF08F081ACA6EF08F0D1
:10114800A8EF08F0B5EF08F06C04D8A4AEEF08F0EB
:10115800B0EF08F0B5EF08F0000E6C6E000E33EC3F
:101168001DF0F2A6BAEF08F0BCEF08F0D7EF08F0D0
:10117800F2A0C1EF08F0C3EF08F0D7EF08F081BC88
:10118800C8EF08F0CAEF08F0D7EF08F06C50D8A401
:10119800D0EF08F0D2EF08F0D7EF08F0010E6C6E30
:1011A800010E33EC1DF0F2A6DCEF08F0DEEF08F0DC
:1011B800F9EF08F0F2A0E3EF08F0E5EF08F0F9EF37
:1011C80008F081AEEAEF08F0ECEF08F0F9EF08F06C
:1011D8006B04D8A4F2EF08F0F4EF08F0F9EF08F088
:1011E800000E6B6E000E26EC1DF0F2A6FEEF08F066
:1011F80000EF09F01BEF09F0F2A005EF09F007EF87
:1012080009F01BEF09F081BE0CEF09F00EEF09F0B1
:101218001BEF09F06B50D8A414EF09F016EF09F092
:101228001BEF09F0010E6B6E010E26EC1DF09DAC54
:1012380020EF09F022EF09F02BEF09F09EAC27EF21
:1012480009F029EF09F02BEF09F09AEC1DF0F2AA4A
:1012580030EF09F032EF09F03BEF09F0F2A437EF75
:1012680009F039EF09F03BEF09F07CEC1DF09DA087
:1012780040EF09F042EF09F04BEF09F09EA047EF6D
:1012880009F049EF09F04BEF09F075EC1DF09DA24C
:1012980050EF09F052EF09F05BEF09F09EA257EF0B
:1012A80009F059EF09F05BEF09F088EC1DF0A0A2F6
:1012B80060EF09F062EF09F06BEF09F0A1A267EFA8
:1012C80009F069EF09F06BEF09F06EEC1DF09DA4D1
:1012D80070EF09F072EF09F07BEF09F09EA477EF49
:1012E80009F079EF09F07BEF09F05FEC1CF0A0A0A2
:1012F80080EF09F082EF09F08BEF09F0A1A087EFEA
:1013080009F089EF09F08BEF09F047EC1CF09DA874
:1013180090EF09F092EF09F09BEF09F09EA897EF84
:1013280009F099EF09F09BEF09F098EC1DF09DAAE0
:10133800A0EF09F0A2EF09F0ABEF09F09EAAA7EF22
:1013480009F0A9EF09F0ABEF09F09EEC1DF09DA69E
:10135800B0EF09F0B2EF09F0BBEF09F09EA6B7EFC6
:1013680009F0B9EF09F0BBEF09F09CEC1DF0A0A65D
:10137800C0EF09F0C2EF09F0CBEF09F0A1A6C7EF63
:1013880009F0C9EF09F0CBEF09F09DEC1DF00BC097
:10139800DAFF0AC0D9FF09C0FBFF08C0FAFF749240
:1013A80011001D50800B2A6E1D501D24316E1CAE7D
:1013B800E0EF09F0E2EF09F0E3EF09F03180315096
:1013C800D8B4E9EF09F0EBEF09F000EF0AF03128A3
:1013D800D8A4F1EF09F0F3EF09F0FBEF09F0000EE4
:1013E8001A6E000E1B6E000E1C6E000E1D6E1C8EFB
:1013F800000E1D6E08EF0AF0000E1A6E000E1B6E2E
:10140800000E1C6E000E1D6E2150800B2A1A2150F2
:101418002124326E20AE13EF0AF015EF0AF016EF12
:101428000AF032803250D8B41CEF0AF01EEF0AF0EE
:1014380033EF0AF03228D8A424EF0AF026EF0AF096
:101448002EEF0AF0000E1E6E000E1F6E000E206EAC
:10145800000E216E208E000E216E3BEF0AF0000E6A
:101468001E6E000E1F6E000E206E000E216E1E50A6
:101478001F1020102110D8A444EF0AF046EF0AF0FC
:101488005EEF0AF0000E1A6E000E1B6E000E1C6E48
:10149800000E1D6E800E1C127F0E1D122A501D128A
:1014A8001AC01AF01BC01BF01CC01CF01DC01DF098
:1014B800A1EF0BF03150D8A464EF0AF066EF0AF000
:1014C80070EF0AF0000E1A6E000E1B6E000E1C6EF6
:1014D800000E1D6EA1EF0BF0325031C022F0236ACE
:1014E800225E000E235A7F0E22242B6E000E23202C
:1014F8002C6E1AC026F01BC027F01CC028F01DC097
:1015080029F0000E1A6E000E1B6E000E1C6E000EE7
:101518001D6E000E2D6E000E2E6E000E2F6E000E2C
:10152800306E000E326ED1EF0AF03250D8B49FEF11
:101538000AF0A1EF0AF0B8EF0AF0D890263627365D
:1015480028362936D8901A361B361C361D3630AE4A
:10155800B0EF0AF0B2EF0AF0B3EF0AF01A80D890B1
:101568002D362E362F3630361E50265C1F50275803
:101578002050285821502958D8A0C5EF0AF0C7EFA5
:101588000AF0D0EF0AF0308C1E50265E1F50275A02
:101598002050285A2150295A322A190E3264D7EF7E
:1015A8000AF0D9EF0AF099EF0AF026502710281010
:1015B8002910D8B4E2EF0AF0E4EF0AF0FCEF0AF0E1
:1015C8002D80FCEF0AF0D8901A361B361C361D36D3
:1015D80030AEF1EF0AF0F3EF0AF0F4EF0AF01A80F8
:1015E800D8902D362E362F3630362B06D8A02C061E
:1015F8001CAE01EF0BF003EF0BF0E7EF0AF0000E63
:10160800326E30AE0AEF0BF00CEF0BF030EF0BF050
:10161800FF0E2D14226EFF0E2E14236EFF0E2F14B4
:10162800246E7F0E3014256E2250231024102510AE
:10163800D8B421EF0BF023EF0BF027EF0BF0010EDE
:10164800326E30EF0BF01AA02CEF0BF02EEF0BF0F0
:1016580030EF0BF023EF0BF03250D8B436EF0BF02D
:1016680038EF0BF05CEF0BF0010E1A26000E1B2270
:101678001C221D221DA043EF0BF045EF0BF05CEF81
:101688000BF01AC022F01BC023F01CC024F01DC0B0
:1016980025F02534253224322332223222C01AF092
:1016A80023C01BF024C01CF025C01DF02B4A2C2A97
:1016B8002CBE67EF0BF02C5008E12B28D8A067EF61
:1016C8000BF069EF0BF074EF0BF0000E2C6E2B682B
:1016D800000E1A6E000E1B6E000E1C6E000E1D6EA4
:1016E8002CBE81EF0BF02C5006E12B04D8B07FEF15
:1016F8000BF081EF0BF08FEF0BF0000E2C6E000E4D
:101708002B6E000E1A6E000E1B6E000E1C6E000E65
:101718001D6E000E2A6E2BC031F031A096EF0BF033
:1017280098EF0BF09BEF0BF01C8E9CEF0BF01C9EC0
:10173800D89031301D6E52EF0AF01200146E14501A
:10174800D8B4A9EF0BF0ABEF0BF0CDEF0BF00FBE59
:10175800B2EF0BF0B0EF0BF0CDEF0BF00CC010F0C8
:101768000DC011F00EC012F00FC013F0101E111EA4
:10177800121E131E102A000E11221222132210C04C
:1017880016F011C017F012C018F013C019F0D5EFF9
:101798000BF00CC016F00DC017F00EC018F00FC0FB
:1017A80019F00C500D100E100F10D8A4DEEF0BF02E
:1017B800E0EF0BF0EAEF0BF0000E0C6E000E0D6E72
:1017C800000E0E6E000E0F6E7BEF0CF0960E156E6F
:1017D800F4EF0BF0152AD890193218321732163256
:1017E800000E1614106E000E1714116E000E181449
:1017F800126EFE0E1914136E1050111012101310E1
:10180800D8A409EF0CF00BEF0CF0EEEF0BF019EF8A
:101818000CF0152A010E1626000E1722182219227E
:10182800D8901932183217321632000E1614106E6C
:10183800000E1714116E000E1814126EFF0E1914F4
:10184800136E1050111012101310D8A42EEF0CF0B4
:1018580030EF0CF00DEF0CF038EF0CF01506D890C7
:10186800163617361836193618BE3DEF0CF03FEF0E
:101878000CF047EF0CF0020E156045EF0CF047EF47
:101888000CF032EF0CF015B04CEF0CF04EEF0CF002
:101898004FEF0CF0189ED890153215C010F0116A51
:1018A800126A136A10C013F0126A116A106A105093
:1018B80016121150171212501812135019121450F0
:1018C800D8B469EF0CF06BEF0CF073EF0CF00FBEAF
:1018D80072EF0CF070EF0CF073EF0CF0198E16C06D
:1018E8000CF017C00DF018C00EF019C00FF0120060
:1018F80020EE03F00F50D9261050DA22DF50D8A47A
:1019080088EF0CF08AEF0CF0D3EF0CF0ACEF0CF092
:10191800BD50F00B0809BD6E28EF0DF0BD50F00B5F
:101928000909BD6E28EF0DF0BD50F00B0209BD6E20
:1019380028EF0DF0BD50F00B0A09BD6E28EF0DF031
:10194800BD50F00B0B09BD6E28EF0DF028EF0DF020
:1019580020EE01F00F50D9261050DA22DF50116E18
:10196800126A1250000AD8B4BCEF0CF0AAEF0CF0BF
:101978001150020AD8B498EF0CF00A0AD8B48CEFC8
:101988000CF0010AD8B492EF0CF0030AD8B49EEF19
:101998000CF0010AD8B4A4EF0CF0AAEF0CF020EE7A
:1019A80003F00F50D9261050DA22DE04D8A4DFEF56
:1019B8000CF0E1EF0CF028EF0DF001EF0DF0BA504C
:1019C800F00B0809BA6E28EF0DF0BA50F00B0909B0
:1019D800BA6E28EF0DF0BA50F00B0209BA6E28EF74
:1019E8000DF0BA50F00B0A09BA6E28EF0DF0BA5094
:1019F800F00B0B09BA6E28EF0DF020EE01F00F5036
:101A0800D9261050DA22DF50116E126A1250000ADD
:101A1800D8B411EF0DF0AAEF0CF01150020AD8B4A7
:101A2800EFEF0CF00A0AD8B4E3EF0CF0010AD8B4CF
:101A3800E9EF0CF0030AD8B4F5EF0CF0010AD8B4BA
:101A4800FBEF0CF0AAEF0CF00FC00CF010C00DF07B
:101A580082EC1AF0010E120051505210D8A437EF40
:101A68000DF039EF0DF03BEF0DF0D5EF0DF0C69A04
:101A780020EE04F05150D9265250DA22DFA047EF69
:101A88000DF049EF0DF051EF0DF051C04DF052C07F
:101A98004EF037EC16F094EF0DF020EE04F05150B4
:101AA800D9265250DA22DFB05CEF0DF05EEF0DF070
:101AB80094EF0DF020EE04F05150D9265250DA225E
:101AC800DFA669EF0DF06BEF0DF06EEF0DF0C58E30
:101AD8007CEF0DF020EE04F05150D9265250DA2256
:101AE800DFB679EF0DF07BEF0DF07CEF0DF0C59EC2
:101AF800C69EC69CC68820EE03F05150D926525087
:101B0800DA22DF50C86E20EE02F05150D92652502A
:101B1800DA22DF50536EC6505318F00B5318C66EB6
:101B28008FEC1DF020EE04F05150D9265250DA22E5
:101B3800DFB2A1EF0DF0A3EF0DF0A6EF0DF0C79EF9
:101B4800B4EF0DF020EE04F05150D9265250DA22AD
:101B5800DFA2B1EF0DF0B3EF0DF0B4EF0DF0C78ECB
:101B680020EE04F05150D9265250DA22DFA4BFEFFC
:101B78000DF0C1EF0DF0C4EF0DF0C78CD2EF0DF0F2
:101B880020EE04F05150D9265250DA22DFB4CFEFBC
:101B98000DF0D1EF0DF0D2EF0DF0C79CC68A39EFEA
:101BA8000DF0010E120020EE03F00F50D926105050
:101BB800DA22DF50D8A4E3EF0DF0E5EF0DF024EFC3
:101BC8000EF001EF0EF0BD50F00B0409BD6E6FEF83
:101BD8000EF0BD50F00B0509BD6E6FEF0EF0BD5055
:101BE800F00B0609BD6E6FEF0EF0BD50F00B070944
:101BF800BD6E6FEF0EF06FEF0EF020EE01F00F509C
:101C0800D9261050DA22DF50116E126A1250000ADB
:101C1800D8B411EF0EF0FFEF0DF01150040AD8B44C
:101C2800E7EF0DF0010AD8B4EDEF0DF0030AD8B4D0
:101C3800F3EF0DF0010AD8B4F9EF0DF0FFEF0DF056
:101C480020EE03F00F50D9261050DA22DE04D8A473
:101C580030EF0EF032EF0EF06FEF0EF04CEF0EF0AB
:101C6800BA50F00B0409BA6E6FEF0EF0BA50F00BD1
:101C78000509BA6E6FEF0EF0BA50F00B0609BA6E8E
:101C88006FEF0EF0BA50F00B0709BA6E6FEF0EF057
:101C980020EE01F00F50D9261050DA22DF50116ED5
:101CA800126A1250000AD8B45CEF0EF0FFEF0DF084
:101CB8001150040AD8B434EF0EF0010AD8B43AEF40
:101CC8000EF0030AD8B440EF0EF0010AD8B446EF7C
:101CD8000EF0FFEF0DF00FC00CF010C00DF082EC0D
:101CE8001AF0010E12000C500D10D8B47EEF0EF051
:101CF80080EF0EF091EF0EF00CC0D9FF0DC0DAFFA7
:101D0800DF30E832E832070B0E6E070E0E648FEFF5
:101D18000EF091EF0EF0F2EF0EF013EF0FF00CC093
:101D2800D9FF0DC0DAFFDF30E832E832070B0E6E5C
:101D3800010E0F6E0E2AA3EF0EF0D8900F360E2E5E
:101D4800A1EF0EF00F50FF0A106E0CC0D9FF0DC0A6
:101D5800DAFFDF50070B116E1150020D440EF32409
:101D6800D96E010EF420DA6EDECF12F0DDCF13F05B
:101D780012C0D9FF13C0DAFF1050DF1613EF0FF0AF
:101D88000CC0D9FF0DC0DAFFDF30E832E832070BAC
:101D98000E6E010E0F6E0E2AD4EF0EF0D8900F368D
:101DA8000E2ED2EF0EF00CC0D9FF0DC0DAFFDF50B7
:101DB800070B106E1050020D440EF324D96E010E5D
:101DC800F420DA6EDECF11F0DDCF12F011C0D9FFAA
:101DD80012C0DAFF0F50DF1213EF0FF00CC0D9FF5B
:101DE8000DC0DAFFDFBCFBEF0EF0FEEF0EF0010EC8
:101DF800FFEF0EF0000E0E6E0F6A0F50000AD8B4F7
:101E080008EF0FF091EF0EF00E50000AD8B493EFE0
:101E18000EF0010AD8B4C4EF0EF091EF0EF0010EE7
:101E28001200000E256E21502210D8A41EEF0FF0CC
:101E380020EF0FF024EF0FF0010E266EA9EF0FF040
:101E480021C015F022C016F0F0EC1AF0266E010E33
:101E58002124156E000E2220166EF0EC1AF0266E64
:101E6800000E256E25502124236E000E2220246E9C
:101E7800020E2324156E000E2420166EF0EC1AF0C4
:101E8800252A070E25644BEF0FF04DEF0FF036EFC4
:101E98000FF01A0E236EF80EE82EFED7232EFCD76D
:101EA80000D021C018F022C019F0380E1A6ED3ECF9
:101EB80016F0070E236E7D0EE82EFED7232EFCD7D4
:101EC80000F021C018F022C019F0380E1A6ED3ECB9
:101ED80016F0320EE82EFED721C018F022C019F0F5
:101EE800380E1A6ED3EC16F021C018F022C019F083
:101EF800010E1A6ED3EC16F021C018F022C019F0AA
:101F0800020E1A6ED3EC16F021C018F022C019F098
:101F1800060E1A6ED3EC16F021C018F022C019F084
:101F28000C0E1A6ED3EC16F021C018F022C019F06E
:101F3800380E1A6ED3EC16F021C018F022C019F032
:101F4800800E1A6ED3EC16F0266E265012000C5036
:101F58000D10D8B4B2EF0FF0B4EF0FF0C5EF0FF0DB
:101F68000CC0D9FF0DC0DAFFDF30E832E832070BCA
:101F78000F6E070E0F64C3EF0FF0C5EF0FF026EFDB
:101F880010F03BEF10F00CC0D9FF0DC0DAFFDF30C6
:101F9800E832E832070B0F6E010E106E0F2AD7EFEA
:101FA8000FF0D89010360F2ED5EF0FF00CC0D9FFD8
:101FB8000DC0DAFFDF50070B116E1150020DEB0E4A
:101FC800F324D96E000EF420DA6EDECF12F0DDCFE6
:101FD80013F012C0D9FF13C0DAFF1050DF123BEF25
:101FE80010F00CC0D9FF0DC0DAFFDF30E832E8325C
:101FF800070B0F6E010E106E0F2A05EF10F0D89028
:1020080010360F2E03EF10F01050FF0A116E0CC09F
:10201800D9FF0DC0DAFFDF50070B126E1250020D08
:10202800EB0EF324D96E000EF420DA6EDECF13F037
:10203800DDCF14F013C0D9FF14C0DAFF1150DF163A
:102048003BEF10F00E500F6E106A1050000AD8B413
:1020580030EF10F0C5EF0FF00F50000AD8B4F5EFCD
:102068000FF0010AD8B4C7EF0FF0C5EF0FF0010E5B
:102078001200D1EC12F0546EC5EF10F05404D8A43D
:1020880048EF10F04AEF10F098EF10F0F50E186EC8
:10209800000E196E010E1A6ED3EC16F06F6E020E5A
:1020A800316E040E306EBA0EE82EFED7302EFCD7F5
:1020B800312EFAD700D0F50E276E000E286E010ECD
:1020C800296E010E2A6E480E2B6EFF0E2C6EE2EC66
:1020D80014F06F6EF50E276E000E286E020E296E34
:1020E800010E2A6EC60E2B6EFF0E2C6EE2EC14F05B
:1020F8006F6E050E316E0F0E306EF10EE82EFED7A4
:10210800302EFCD7312EFAD700F0F50E186E000EDF
:10211800196E010E1A6ED3EC16F06F6E000E596E22
:10212800000E586E3DEF10F05450D8A49EEF10F0FA
:10213800A0EF10F0C5EF10F0010E576EF50E186EF7
:10214800000E196E010E1A6ED3EC16F06F6EF50EB6
:10215800276E000E286E010E296E010E2A6EFE0EE5
:102168002B6EFE0E2C6EE2EC14F06F6E030E316EC9
:102178008A0E306E560EE82EFED7302EFCD7312E42
:10218800FAD75704D8A4CBEF10F0CDEF10F042EFF8
:1021980010F01200000E1C6E000E1E6E000E1F6E58
:1021A800000E1D6E15501610D8B4DDEF10F0DFEFDD
:1021B80010F0E8EF10F017501810D8A4E6EF10F060
:1021C800E8EF10F0ECEF10F0010E1B6E54EF11F079
:1021D800000E1E6E000E1D6E1D5015240C6E000E96
:1021E80016200D6E000E0E6EABEC0FF01D2A030EBE
:1021F8001D6401EF11F003EF11F0F0EF10F01E5025
:1022080015240C6E000E16200D6E010E0E6EABEC32
:102218000FF0000E1F6E1F501524196E000E1620A9
:102228001A6E040E19240C6E000E1A200D6E1C0E68
:102238000E6E000E0F6E3BEC15F01B6E1C04D8A43E
:1022480028EF11F02AEF11F042EF11F01E50040DA3
:10225800B30EF324196EFE0EF4201A6E1F501926C1
:10226800000E1A2219C0F6FF1AC0F7FFF86A17C045
:10227800D9FF18C0DAFF0800F5CFDFFF1F2A030EC9
:102288001F6449EF11F04BEF11F00FEF11F01E2A08
:10229800030E1E6452EF11F054EF11F0EEEF10F040
:1022A8001B501200453446344C6E4C50D8A45FEF96
:1022B80011F061EF11F06BEF11F0000E436E000E9C
:1022C800446E000E456E000E466ED8EF11F043C006
:1022D80047F044C048F045C049F046C04AF0200ED7
:1022E8007BEF11F0D8904A32493248324732E82E13
:1022F80076EF11F047504B6E458EFF0E4316FF0EDA
:102308004416FF0E4516000E4616960E4C5E4CBE41
:1023180092EF11F090EF11F0A8EF11F04C50800AF5
:10232800970FD8B09AEF11F09CEF11F09EEF11F0D3
:1023380061EF11F0D89046324532443243324C3E78
:102348009EEF11F0C0EF11F01F0E4C64AEEF11F0CC
:10235800B0EF11F0B8EF11F061EF11F0D8904336FB
:102368004436453646364C064C50D8A4BEEF11F0DC
:10237800C0EF11F0B2EF11F04B50D8B4C6EF11F026
:10238800C8EF11F0D0EF11F0461E451E441E436CF5
:10239800000E44224522462243C043F044C044F084
:1023A80045C045F046C046F0120020EE05F00C503E
:1023B800D9260D50DA22DFAAE4EF11F0E6EF11F08A
:1023C80048EF12F0AB8820EE0AF00C50D9260D50D9
:1023D800DA22DECF8AF0DDCF8BF020EE0CF00C5045
:1023E800D9260D50DA22DECF88F0DDCF89F020EE35
:1023F8000EF00C50D9260D50DA22DECF86F0DDCF54
:1024080087F020EE05F00C50D9260D50DA22DFAC0B
:1024180010EF12F012EF12F018EF12F09D8A9D8A59
:10242800F28EF28C26EF12F020EE05F00C50D92631
:102438000D50DA22DFBC23EF12F025EF12F026EF61
:1024480012F09D9A20EE05F00C50D9260D50DA2294
:10245800DFAE31EF12F033EF12F036EF12F0AB8C43
:1024680056EF12F020EE05F00C50D9260D50DA2266
:10247800DFBE41EF12F043EF12F046EF12F0AB9CD3
:1024880056EF12F056EF12F020EE05F00C50D92658
:102498000D50DA22DFBA53EF12F055EF12F056EF73
:1024A80012F0AB981200000185390F0B300FD46F72
:1024B80085510F0B300FD56F2D0ED66F84390F0B4A
:1024C800300FD76F84510F0B300FD86F2D0ED96F87
:1024D80083390F0B300FDA6F83510F0B300FDB6F1F
:1024E800000EDC6F80390F0B300FCB6F80510F0B54
:1024F800300FCC6F3A0ECD6F81390F0B300FCE6F86
:1025080081510F0B300FCF6F3A0ED06F82390F0BFE
:10251800300FD16F82510F0B300FD26F000ED36F77
:10252800F50E276E000E286E010E296E010E2A6E1A
:10253800F30E2B6EFF0E2C6EE2EC14F06F6EF50EA0
:10254800276E000E286E010E296E080E2A6ED40E14
:102558002B6E000E2C6EE2EC14F06F6EF50E276EEB
:10256800000E286E020E296E010E2A6EEB0E2B6EDF
:10257800FF0E2C6EE2EC14F06F6EF50E276E000E57
:10258800286E020E296E080E2A6ECB0E2B6E000ED8
:102598002C6EE2EC14F06F6E1200000E6A6EF50EEF
:1025A800186E000E196E010E1A6ED3EC16F06F6ECF
:1025B800020E2F6E040E2E6EBA0EE82EFED72E2EA9
:1025C800FCD72F2EFAD700D0F50E276E000E286EF6
:1025D800010E296E010E2A6EA20E2B6EFF0E2C6EB6
:1025E800E2EC14F06F6E3BEF13F0590E156E010E0E
:1025F800166E6A0E176E000E186ECEEC10F06F6E27
:102608006A50D8B40AEF13F00CEF13F039EF13F057
:10261800F50E276E000E286E010E296E59500C0F0C
:102628002A6EE90E2B6EFF0E2C6EE2EC14F06F6E24
:10263800030E2F6E8A0E2E6E560EE82EFED72E2E05
:10264800FCD72F2EFAD7540E5924D96EDA6A010E08
:10265800DA226A50DE18D8B434EF13F036EF13F0EC
:1026680038EF13F0010E586E592A000E6A6E050EE7
:102678005918D8A442EF13F044EF13F0F9EF12F011
:1026880058501200126E650E0C6E000E0D6E16EC90
:102698001CF06F6E0D0E116EFC0EE82EFED7112E7B
:1026A800FCD7650E0C6E000E0D6ED00E0E6E140E5D
:1026B8000F6E000E106EBAEC1AF06F6EC80E00D0D6
:1026C800E82EFDD7650E0C6E000E0D6E12C00EF0D2
:1026D800140E0F6E000E106EBAEC1AF06F6EC80E64
:1026E80000D0E82EFDD7650E0C6E000E0D6E2FEC97
:1026F8001CF06F6EC80E00D0E82EFDD7650E0C6E6C
:10270800000E0D6ED10E0E6E140E0F6E000E106EB2
:10271800BAEC1AF06F6E0D0E116EFC0EE82EFED795
:10272800112EFCD7650E0C6E000E0D6E010E0E6E8E
:10273800130E0F6E000E106E60EC19F06F6EC80E5F
:1027480000D0E82EFDD7650E0C6E000E0D6EFDEC68
:102758001BF06F6E0D0E116EFC0EE82EFED7112EBB
:10276800FCD71350120020EE03F00C50D9260D5060
:10277800DA22DFAAC2EF13F0C4EF13F012EF14F05D
:10278800AC8A20EE08F00C50D9260D50DA22DECFA4
:102798008CF0DDCF8DF020EE03F00C50D9260D50D3
:1027A800DA22DFACDAEF13F0DCEF13F0E2EF13F02C
:1027B8009D889D88F28EF28CF0EF13F020EE03F0E6
:1027C8000C50D9260D50DA22DFBCEDEF13F0EFEFF5
:1027D80013F0F0EF13F09D9820EE03F00C50D9267B
:1027E8000D50DA22DFAEFBEF13F0FDEF13F000EF30
:1027F80014F0AC8C20EF14F020EE03F00C50D92626
:102808000D50DA22DFBE0BEF14F00DEF14F010EFCD
:1028180014F0AC9C20EF14F020EF14F020EE03F03D
:102828000C50D9260D50DA22DFBA1DEF14F01FEF35
:1028380014F020EF14F0AC9A120019501A10D8A412
:1028480028EF14F02AEF14F02CEF14F086EF14F0B0
:1028580020EE03F01950D9261A50DA22DF50D8A4F6
:1028680038EF14F03AEF14F03EEF14F0F00EBD1606
:102878004EEF14F020EE03F01950D9261A50DA2240
:10288800DE04D8A44AEF14F04CEF14F04EEF14F025
:10289800F00EBA1619C0D9FF1AC0DAFFDF50D8A453
:1028A80058EF14F05AEF14F062EF14F019C00FF05B
:1028B8001AC010F0D7EC0DF076EF14F019C0D9FF5C
:1028C8001AC0DAFFDE04D8A46CEF14F06EEF14F02F
:1028D80076EF14F019C00FF01AC010F07CEC0CF071
:1028E80076EF14F0020E1924156E000E1A20166EDB
:1028F800F0EC1AF019C00CF01AC00DF0C6EC1BF081
:102908002AEF14F0010E1200146E650E0C6E000E04
:102918000D6E16EC1CF06F6E0D0E136EFC0EE82E8D
:10292800FED7132EFCD7650E0C6E000E0D6E14C06C
:102938000EF0150E0F6E000E106EBAEC1AF06F6ED8
:102948000D0E136EFC0EE82EFED7132EFCD7650E67
:102958000C6E000E0D6E11C00EF0150E0F6E000EEF
:10296800106EBAEC1AF06F6E0D0E136EFC0EE82E98
:10297800FED7132EFCD7650E0C6E000E0D6E12C01E
:102988000EF0150E0F6E000E106EBAEC1AF06F6E88
:102998000D0E136EFC0EE82EFED7132EFCD7650E17
:1029A8000C6E000E0D6EFDEC1BF06F6E0D0E136EAF
:1029B800FC0EE82EFED7132EFCD712002750281045
:1029C800D8B4E9EF14F0EBEF14F0F4EF14F02B5057
:1029D8002C10D8A4F2EF14F0F4EF14F0F8EF14F080
:1029E800010E2D6E39EF15F027C021F028C022F016
:1029F80029C023F02AC024F086EC16F02D6E20EFB3
:102A080015F027C018F028C019F02BC0F6FF2CC00D
:102A1800F7FF000EF86E0F0EF76403D00800F550AC
:102A280005D0F6CFE9FFF7CFEAFFEF501A6E1BEC9F
:102A380017F02D6E2B4A2C2A2BC0F6FF2CC0F7FF5F
:102A4800000EF86E0F0EF76403D00800F55005D09D
:102A5800F6CFE9FFF7CFEAFFEF500009D8A437EF28
:102A680015F039EF15F005EF15F02D5012000C5048
:102A78000D10D8B442EF15F044EF15F05EEF15F0E5
:102A88000E500F10D8B44BEF15F04DEF15F05EEF68
:102A980015F00CC0D9FF0DC0DAFFDF30E832E8329C
:102AA800070B106E070E10645CEF15F05EEF15F063
:102AB80060EF15F091EF15F00CC0D9FF0DC0DAFFEB
:102AC800DF30E832E832070B106E0CC0D9FF0DC0BA
:102AD800DAFFDF50070B116E1150020D3A0EF32486
:102AE800D96E010EF420DA6EDECF12F0DDCF13F0CE
:102AF80012C0D9FF13C0DAFFDF50146E102A87EF17
:102B080015F0D8901432102E85EF15F01450010BE3
:102B18000EC0D9FF0FC0DAFFDF6E010E12000E5093
:102B28000F10D8A49AEF15F09CEF15F09EEF15F052
:102B3800E3EF15F0B19020EE05F00E50D9260F50B6
:102B4800DA22DF50106E103AB1501018CF0B10185F
:102B5800B16E0EC00CF00FC00DF06AEC18F020EE4C
:102B680003F00E50D9260F50DA22DECF10F0DDCF59
:102B780011F011C010F0116A1050B36E20EE03F07E
:102B88000E50D9260F50DA22DF50B26E20EE03F035
:102B98000E50D9260F50DA22DECF8EF0DDCF8FF01F
:102BA800A082A192F28EF28C0EC0D9FF0FC0DAFF7C
:102BB800DECF90F0DDCF91F0B1809CEF15F0010EE3
:102BC80012000E500F10D8A4ECEF15F0EEEF15F030
:102BD800F0EF15F035EF16F0CD9020EE05F00E5021
:102BE800D9260F50DA22DF50106E103ACD50101847
:102BF800CF0B1018CD6E0EC00CF00FC00DF0A9EC65
:102C080018F020EE03F00E50D9260F50DA22DECF4E
:102C180010F0DDCF11F011C010F0116A1050CF6E16
:102C280020EE03F00E50D9260F50DA22DF50CE6E78
:102C380020EE03F00E50D9260F50DA22DECF94F0A2
:102C4800DDCF95F09D809E90F28EF28C0EC0D9FF5C
:102C58000FC0DAFFDECF96F0DDCF97F0CD80EEEF34
:102C680015F0010E120020EE02F04D50D9264E50FC
:102C7800DA22DF504F6EC6504F18F00B4F18C66E51
:102C8800000E376E000E386E800E396EBF0E3A6E2B
:102C98004DC0D9FF4EC0DAFFDECF4FF0DDCF50F088
:102CA8004FC00CF050C00DF00E6A0F6A000EA2EC77
:102CB8000BF00CC01EF00DC01FF00EC020F00FC0AE
:102CC80021F0000E1A6E240E1B6E740E1C6E490E37
:102CD8001D6ED5EC09F01AC033F01BC034F01CC0CF
:102CE80035F01DC036F072EC05F033C043F034C047
:102CF80044F035C045F036C046F056EC11F043506C
:102D0800C86E12002406B5EF16F021C018F022C0D4
:102D180019F02450800F1A6ED3EC16F0D2EF16F08B
:102D280021C018F022C019F02450C00F1A6ED3EC3D
:102D380016F0D2EF16F021C018F022C019F0245076
:102D4800940F1A6ED3EC16F0D2EF16F021C018F0DB
:102D580022C019F02450D40F1A6ED3EC16F0D2EF1B
:102D680016F02350256E266A2650000AD8B4BFEF05
:102D780016F0D2EF16F02550010AD8B489EF16F0F4
:102D8800030AD8B494EF16F0010AD8B49FEF16F0EE
:102D9800070AD8B4AAEF16F0D2EF16F01200000E08
:102DA800206E18501910D8A4DCEF16F0DEEF16F0DC
:102DB800E2EF16F0010E1F6E19EF17F018C00CF0B5
:102DC80019C00DF0000E0E6EABEC0FF0000E206E69
:102DD800205018241B6E000E19201C6E020E1B2496
:102DE8000C6E000E1C200D6E20C01DF01AC01EF0C7
:102DF8001D2A01EF17F0D8901E321D2EFFEF16F096
:102E08001E50010B0E6EABEC0FF0202A070E20644B
:102E180010EF17F012EF17F0ECEF16F018C015F0DE
:102E280019C016F0E3EC1BF01F6E1F501200000EC5
:102E3800206E18501910D8A424EF17F026EF17F0B9
:102E48002AEF17F0010E1F6E61EF17F018C00CF093
:102E580019C00DF0010E0E6EABEC0FF0000E206ED7
:102E6800205018241B6E000E19201C6E020E1B2405
:102E78000C6E000E1C200D6E20C01DF01AC01EF036
:102E88001D2A49EF17F0D8901E321D2E47EF17F074
:102E98001E50010B0E6EABEC0FF0202A070E2064BB
:102EA80058EF17F05AEF17F034EF17F018C015F075
:102EB80019C016F0E3EC1BF01F6E1F501200020E33
:102EC800F66E3A0EF76E000EF86E01EE3AF010EE5E
:102ED80027F00900F5CFEEFFE550E150FAE1B40E16
:102EE800F66E3A0EF76E000EF86E00EEEBF010EE8E
:102EF80014F00900F5CFEEFFE550E150FAE1060EB7
:102F0800F66E3B0EF76E000EF86E00EE6BF010EEEC
:102F180009F00900F5CFEEFFE550E150FAE101EEC6
:102F280000F03A0EEE6AE806FDE100EE80F06B0E66
:102F3800EE6AE806FDE100EE54F0170EEE6AE806C8
:102F4800FDE174907492000109EF00F0000E1E6E0E
:102F5800000E1F6E19501A10D8A4B5EF17F0B7EF6E
:102F680017F0BBEF17F0010E1D6EE8EF17F0000E1B
:102F78001E6E1E501924156E000E1A20166EF0ECE7
:102F88001AF01E2A030E1E64CCEF17F0CEEF17F0CE
:102F9800BDEF17F0000E1F6E1F5019241B6E000E98
:102FA8001A201C6E040E1B240C6E000E1C200D6EC5
:102FB80077EC0EF01D6E1F2A030E1F64E6EF17F064
:102FC800E8EF17F0D0EF17F01D5012005B2AE40E5F
:102FD800016E000E026E000E046E000E036E15ECFC
:102FE8001DF06F6E5B04D8A4FCEF17F0FEEF17F02E
:102FF8000FEF18F0240E016E010E026E090E046E1A
:10300800600E036E49EC1AF06F6EBA50F00B0909A6
:10301800BA6E29EF18F0020E5B18D8A416EF18F054
:1030280018EF18F029EF18F0240E016E010E026E49
:10303800440E046EC00E036E49EC1AF06F6EBA505F
:10304800F00B0809BA6E000E5B6E12005C2AE40EE3
:10305800016E000E026E000E046E000E036E15EC7B
:103068001DF06F6E5C04D8A43CEF18F03EEF18F02A
:103078004FEF18F02F0E016E010E026E090E046E4E
:10308800600E036E49EC1AF06F6EBD50F00B090923
:10309800BD6E69EF18F0020E5C18D8A456EF18F050
:1030A80058EF18F069EF18F02F0E016E010E026E3E
:1030B800440E046EC00E036E49EC1AF06F6EBD50DC
:1030C800F00B0809BD6E000E5C6E120020EE06F0D3
:1030D8000C50D9260D50DA22DFB075EF18F077EFD3
:1030E80018F07AEF18F0B192A8EF18F020EE06F079
:1030F8000C50D9260D50DA22DFA085EF18F087EFA3
:1031080018F0A8EF18F0B18220EE06F00C50D9267E
:103118000D50DA22DFA293EF18F095EF18F098EF30
:1031280018F0B184A8EF18F020EE06F00C50D9265C
:103138000D50DA22DFB2A3EF18F0A5EF18F0A8EFD0
:1031480018F0B194A8EF18F0120020EE06F00C5019
:10315800D9260D50DA22DFB0B4EF18F0B6EF18F028
:10316800B9EF18F0CD92E7EF18F020EE06F00C500A
:10317800D9260D50DA22DFA0C4EF18F0C6EF18F0F8
:10318800E7EF18F0CD8220EE06F00C50D9260D504E
:10319800DA22DFA2D2EF18F0D4EF18F0D7EF18F048
:1031A800CD84E7EF18F020EE06F00C50D9260D502C
:1031B800DA22DFB2E2EF18F0E4EF18F0E7EF18F0E8
:1031C800CD94E7EF18F0120015501610D8A4EFEFC1
:1031D80018F0F1EF18F0F3EF18F022EF19F05EC0D5
:1031E80018F015C0D9FF16C0DAFFDF500F0B176EA5
:1031F80018501718F80B1718186E15C0D9FF16C0F5
:10320800DAFFDF38070B176E1746174617461850B0
:103218001718C70B1718186E189C15C0D9FF16C0B9
:10322800DAFFDFAE02D0188E01D0189E180E0C6E91
:10323800000E0D6E010E0E6EABEC0FF0010E1200BB
:1032480015501610D8A42BEF19F02DEF19F02FEF09
:1032580019F05EEF19F063C018F015C0D9FF16C059
:10326800DAFFDF500F0B176E18501718F80B1718E6
:10327800186E15C0D9FF16C0DAFFDF38070B176EB6
:1032880017461746174618501718C70B1718186E01
:10329800189C15C0D9FF16C0DAFFDFAE02D0188E11
:1032A80001D0189E180E0C6E000E0D6E010E0E6EDB
:1032B800ABEC0FF0010E12000C500D10D8B467EFF4
:1032C80019F069EF19F072EF19F00F501010D8A427
:1032D80070EF19F072EF19F074EF19F09AEF19F016
:1032E800C586C7A07AEF19F07CEF19F075EF19F0D1
:1032F8000FC0D9FF10C0DAFFC9CFDFFF0E50D8A426
:1033080088EF19F08AEF19F08EEF19F0C59AC58881
:1033180072EF19F00E04D8A494EF19F096EF19F093
:1033280072EF19F0C58AC58872EF19F0010E120004
:1033380019501A10D8A4A3EF19F0A5EF19F0A7EFA8
:1033480019F0D4EF19F05FC01CF019C0D9FF1AC0EA
:10335800DAFFDF500F0B1B6E1C501B18F80B1B18E5
:103368001C6E19C0D9FF1AC0DAFFDF38070B1B6EB5
:103378001B461B461B461C501B18C70B1B181C6EF4
:103388001C9C19C0D9FF1AC0DAFFDFAE02D01C8E10
:1033980001D01C9E1C0E156E000E166EF0EC1AF075
:1033A800010E120019501A10D8A4DDEF19F0DFEF42
:1033B80019F0E1EF19F00EEF1AF064C01CF019C013
:1033C800D9FF1AC0DAFFDF500F0B1B6E1C501B18F9
:1033D800F80B1B181C6E19C0D9FF1AC0DAFFDF38AA
:1033E800070B1B6E1B461B461B461C501B18C70BA6
:1033F8001B181C6E1C9C19C0D9FF1AC0DAFFDFAE5F
:1034080002D01C8E01D01C9E1C0E156E000E166E6E
:10341800F0EC1AF0010E12000C500D10D8A417EFA2
:103428001AF019EF1AF01BEF1AF047EF1AF00EC056
:1034380011F00FC012F020EE03F00C50D9260D50F9
:10344800DA22DF50D8A42BEF1AF02DEF1AF033EF61
:103458001AF011C0BEFF12C0BFFF19EF1AF020EE1C
:1034680003F00C50D9260D50DA22DE04D8A43FEF21
:103478001AF041EF1AF019EF1AF011C0BBFF12C091
:10348800BCFF19EF1AF0010E120001500210D8A467
:1034980050EF1AF052EF1AF054EF1AF080EF1AF0CA
:1034A80003C006F004C007F020EE03F00150D9264F
:1034B8000250DA22DF50D8A464EF1AF066EF1AF04F
:1034C8006CEF1AF006C0BEFF07C0BFFF52EF1AF03C
:1034D80020EE03F00150D9260250DA22DE04D8A4E7
:1034E80078EF1AF07AEF1AF052EF1AF006C0BBFF25
:1034F80007C0BCFF52EF1AF0010E120020EE04F0D4
:103508000C50D9260D50DA22020EDE18D8A48FEFFF
:103518001AF091EF1AF095EF1AF0B196B18CB9EF55
:103528001AF020EE04F00C50D9260D50DA22DE04F1
:10353800D8A4A1EF1AF0A3EF1AF0A7EF1AF0B186FA
:10354800B19CB9EF1AF020EE04F00C50D9260D50BA
:10355800DA22DF50D8A4B3EF1AF0B5EF1AF0B9EFBA
:103568001AF0B196B19CB9EF1AF012000C500D1078
:10357800D8B4C1EF1AF0C3EF1AF0CCEF1AF00F501D
:103588001010D8A4CAEF1AF0CCEF1AF0CEEF1AF048
:10359800EEEF1AF00EC0C9FF9EA6D5EF1AF0D7EFCE
:1035A8001AF0D0EF1AF09E96C5BCDDEF1AF0DFEFE7
:1035B8001AF0E6EF1AF00FC0D9FF10C0DAFFDF6A81
:1035C800CCEF1AF00FC0D9FF10C0DAFF010EDF6E82
:1035D800CCEF1AF0010E120015501610D8B4F7EF00
:1035E8001AF0F9EF1AF00AEF1BF015C0D9FF16C050
:1035F800DAFFDF30E832E832070B176E070E176480
:1036080008EF1BF00AEF1BF00EEF1BF0010E186E0F
:1036180024EF1BF015C00CF016C00DF077EC0EF07F
:10362800186E15C00CF016C00DF015C0D9FF16C0E5
:10363800DAFF000EDFBE010E0E6EABEC0FF0186E57
:103648001850120064EC1DF0650E516E000E526E9B
:1036580030EC0DF0A8EC1BF0BB0E516E000E526E54
:1036680083EC1BF0F50E216E000E226E15EC0FF0A8
:10367800590E196E010E1A6EAAEC17F0730E196E18
:10368800000E1A6E9CEC19F0720E196E000E1A6E6E
:103698009CEC19F0710E196E000E1A6ED6EC19F02A
:1036A800700E196E000E1A6ED6EC19F01200000E8C
:1036B80046EC13F00001826F010E46EC13F0000196
:1036C800816F020E46EC13F00001806F040E46EC89
:1036D80013F00001856F050E46EC13F00001846FAE
:1036E800060E46EC13F00001836F20EE80F000EE2A
:1036F80015F0050EDBCFEBFFE806FCE21200515097
:103708005210D8A48AEF1BF08CEF1BF08EEF1BF041
:10371800A6EF1BF051C04DF052C04EF0FAEC02F08B
:10372800AB9E948C948E51C00CF052C00DF0B7EC47
:1037380013F051C00CF052C00DF0D9EC11F0AB8E63
:103748008CEF1BF0010E1200250E0001BC6F800EDD
:10375800BB6F000EBD6FBE8BBE9DBE9FC08BC09D54
:10376800C09F000EC36F000EC46F000EC56F000E21
:10377800C66F000EC76F000EC86F000EC96F000E2F
:10378800CA6F12009D849E94F28EF28C20EE05F092
:103798000C50D9260D50DA22DECFB6F0DDCFB7F0C7
:1037A800A080A190F28EF28C20EE08F00C50D92661
:1037B8000D50DA22DECFB4F0DDCFB5F01200010EE5
:1037C80015240C6E000E16200D6E010E0E6EABEC5D
:1037D8000FF000D000D000F0010E15240C6E000E82
:1037E80016200D6E000E0E6EABEC0FF0176E175014
:1037F80012000C500D10D8A404EF1CF006EF1CF0BA
:1038080008EF1CF014EF1CF0C584C5B40EEF1CF0D3
:1038180010EF1CF009EF1CF09E96C75006EF1CF045
:10382800010E12000C500D10D8A41DEF1CF01FEF54
:103838001CF021EF1CF02DEF1CF0C580C5B027EF60
:103848001CF029EF1CF022EF1CF09E96C7501FEFCA
:103858001CF0010E12000C500D10D8A436EF1CF00D
:1038680038EF1CF03AEF1CF045EF1CF0C582C5B2EA
:1038780040EF1CF042EF1CF03BEF1CF09E9638EF37
:103888001CF0010E1200A1900001B451B511D8B47A
:1038980050EF1CF052EF1CF05EEF1CF002D85EEF08
:1038A8001CF00500FA6EB451FD6EB551FE6EFF6A4C
:1038B800FA50120012009E940001B651B711D8B404
:1038C80068EF1CF06AEF1CF076EF1CF002D876EF78
:1038D8001CF00500FA6EB651FD6EB751FE6EFF6A18
:1038E800FA5012001200A5EC1CF0240E0C6E010E0A
:1038F8000D6E440E0F6EC00E0E6E10EC1AF06F6E49
:10390800240E196E010E1A6E21EC14F06F6E8EECF7
:103918001CF01200000E0001E46F000EE56F000EAF
:10392800E96FEA91000EE66F000EE86F000EE76F90
:10393800EA95E40E0E6E000E0F6E93EC15F06F6EA6
:103948001200010E0101276FD40E2C6F2F0E2D6F60
:10395800010E246F080E256F010E286F2651F80BF3
:103968000209266F2651C70B0809266F269D1200EB
:10397800EAEC1CF02F0E0C6E010E0D6E440E0F6E4D
:10398800C00E0E6E10EC1AF06F6E2F0E196E010E2F
:103998001A6E21EC14F06F6ED3EC1CF01200000EBE
:1039A8000001DD6F000EDE6F000EE26FE391010E85
:1039B800DF6F000EE16F000EE06FE397DD0E0E6E15
:1039C800000E0F6EE5EC15F06F6E1200000E01018F
:1039D800326F540E346F300E356F010E2F6F080E94
:1039E800306F010E336F3151F80B0209316F3151CD
:1039F800C70B1009316F319D1200800F810F820FA4
:103A0800830F840F920F930F940F950F960F020A4E
:103A1800121A222A313233343510023139515961A0
:013A28004954
:103A2A0001500210D8A41CEF1DF01EEF1DF020EF6C
:103A3A001DF024EF1DF00450B36E03C0B2FF010E57
:103A4A001200016EF2900150D8A42EEF1DF030EF53
:103A5A001DF032EF1DF032EF1DF01200016EF290F0
:103A6A000150D8A43BEF1DF03DEF1DF03FEF1DF0D4
:103A7A003FEF1DF01200016EF2900150D8A448EFFA
:103A8A001DF04AEF1DF04CEF1DF04CEF1DF0120037
:103A9A00016EF2900150D8A455EF1DF057EF1DF0BA
:103AAA0059EF1DF059EF1DF01200890F8A0F8B0F85
:103ABA008C0F8D0F0008030B131B232B333B860E31
:103ACA00666EA00E656E6980080E676E69946982DB
:103ADA001200A19200018F51B36E8EC0B2FF120084
:103AEA009E9000019551CF6E94C0CEFF1200F294C1
:103AFA0000019951D76E98C0D6FF12000101010149
:053B0A000151015030E3
:103B10009E925AC0CCFF120026EC1BF01200948635
:103B200094881200F0921200F0901200F2921200AB
:0E3B30009D9812009E9C1200120012001200BE
:10FEB200003738392F3435362A3132332D23303D4D
:10FEC2002B526F6F6D2031204C616D702069732051
:10FED2004F70656E00526F6F6D2032204C616D70F5
:10FEE200206973204F70656E00546F20456E7465F3
:10FEF200722050617373776F72642000436F727265
:10FF02006563742050617373776F726420210033CC
:10FF120020546F2073686F77207468652064617461
:10FF22006500526F6F6D2031205456206973204F47
:10FF320070656E00526F6F6D2032205456206973C7
:10FF4200204F70656E0057726F6E67205061737339
:10FF5200776F7264202100526F6F6D2031206973B8
:10FF6200204F70656E00526F6F6D203220697320D2
:10FF72004F70656E003220546F204F70656E204CBA
:10FF8200616D70003120546F204F70656E20446F98
:10FF92006F72003320546F204F70656E20545600EC
:10FFA20050617373776F7264203A20003120466F7C
:10FFB2007220526F6F6D31003220466F7220526F85
:10FFC2006F6D320054727920416761696E002A2098
:10FFD200546F204578697400616E642074696D65A0
:10FFE20000436C69636B202A0054696D65203A20D6
:0DFFF2000044617465203A2000256900007C
:020000040030CA
:0E000000FF02091EFF8181FF0FC00FE00F40BD
:00000001FF
