:0400000007EF00F016
:0A0008007E82E6ED0CF01FEF16F00B
:10100000003738392F3435362A3132332D23303DED
:0D1010002B44617465203A20002569000022
:10101E00000E476E000E486E000E496E000E4A6EB0
:10102E003FEF0AF0AC98AC94B89643C0D9FF44C0D9
:10103E00DAFFDECF45F0DDCF46F045C002F046C008
:10104E0003F0046A056A000EA6EC10F002C014F05C
:10105E0003C015F004C016F005C017F0000E106E98
:10106E00240E116EF40E126E4A0E136ED9EC0EF0A3
:10107E0010C04BF011C04CF012C04DF013C04EF02A
:10108E00000E146E000E156E800E166E420E176E4A
:10109E004BC010F04CC011F04DC012F04EC013F00A
:1010AE00D9EC0EF010C029F011C02AF012C02BF0AE
:1010BE0013C02CF0000E2D6E000E2E6E800E2F6EB5
:1010CE00BF0E306E86EC0AF029C047F02AC048F0F9
:1010DE002BC049F02CC04AF06AEF0AF0AC98AC84F1
:1010EE00B89643C0D9FF44C0DAFFDECF45F0DDCF5E
:1010FE0046F045C002F046C003F0046A056A000ED1
:10110E00A6EC10F002C014F003C015F004C016F0E7
:10111E0005C017F0000E106E240E116EF40E126E36
:10112E004A0E136ED9EC0EF010C04BF011C04CF0FD
:10113E0012C04DF013C04EF0000E146E000E156E60
:10114E00800E166E410E176E4BC010F04CC011F093
:10115E004DC012F04EC013F0D9EC0EF010C029F0B5
:10116E0011C02AF012C02BF013C02CF0000E2D6E01
:10117E00000E2E6E800E2F6EBF0E306E86EC0AF0B5
:10118E0029C047F02AC048F02BC049F02CC04AF0C5
:10119E006AEF0AF0AC98AC94B88643C0D9FF44C04D
:1011AE00DAFFDECF45F0DDCF46F045C002F046C097
:1011BE0003F0046A056A000EA6EC10F002C014F0EB
:1011CE0003C015F004C016F005C017F0000E106E27
:1011DE00240E116EF40E126E4A0E136ED9EC0EF032
:1011EE0010C04BF011C04CF012C04DF013C04EF0B9
:1011FE00000E146E000E156E800E166E410E176EDA
:10120E004BC010F04CC011F04DC012F04EC013F098
:10121E00D9EC0EF010C029F011C02AF012C02BF03C
:10122E0013C02CF0000E2D6E000E2E6E800E2F6E43
:10123E00BF0E306E86EC0AF029C047F02AC048F087
:10124E002BC049F02CC04AF06AEF0AF0AC98AC847F
:10125E00B88643C0D9FF44C0DAFFDECF45F0DDCFFC
:10126E0046F045C002F046C003F0046A056A000E5F
:10127E00A6EC10F002C014F003C015F004C016F076
:10128E0005C017F0000E106E240E116EF40E126EC5
:10129E004A0E136ED9EC0EF010C04BF011C04CF08C
:1012AE0012C04DF013C04EF0000E146E000E156EEF
:1012BE00800E166E400E176E4BC010F04CC011F023
:1012CE004DC012F04EC013F0D9EC0EF010C029F044
:1012DE0011C02AF012C02BF013C02CF0000E2D6E90
:1012EE00000E2E6E800E2F6EBF0E306E86EC0AF044
:1012FE0029C047F02AC048F02BC049F02CC04AF054
:10130E006AEF0AF0AC88B89643C0D9FF44C0DAFF42
:10131E00DECF45F0DDCF46F045C002F046C003F00B
:10132E00046A056A000EA6EC10F002C014F003C0A9
:10133E0015F004C016F005C017F0000E106E240E46
:10134E00116EF40E126E4A0E136ED9EC0EF010C022
:10135E004BF011C04CF012C04DF013C04EF0000E09
:10136E00146E000E156E800E166E400E176E4BC06C
:10137E0010F04CC011F04DC012F04EC013F0D9EC6D
:10138E000EF010C029F011C02AF012C02BF013C0BD
:10139E002CF0000E2D6E000E2E6E800E2F6EBF0ED8
:1013AE00306E86EC0AF029C047F02AC048F02BC0F8
:1013BE0049F02CC04AF06AEF0AF0AC88B88643C0F8
:1013CE00D9FF44C0DAFFDECF45F0DDCF46F045C091
:1013DE0002F046C003F0046A056A000EA6EC10F097
:1013EE0002C014F003C015F004C016F005C017F0CB
:1013FE00000E106E240E116EF40E126E4A0E136E47
:10140E00D9EC0EF010C04BF011C04CF012C04DF0E4
:10141E0013C04EF0000E146E000E156E800E166E7A
:10142E00400E176E4BC010F04CC011F04DC012F0B4
:10143E004EC013F0D9EC0EF010C029F011C02AF0F6
:10144E0012C02BF013C02CF0000E2D6E000E2E6E5F
:10145E00800E2F6EBF0E306E86EC0AF029C047F05C
:10146E002AC048F02BC049F02CC04AF06AEF0AF0AF
:10147E0020EE02F04350D9264450DA22DF50456E5A
:10148E00466A4650000AD8B44FEF0AF06AEF0AF0E7
:10149E004550000AD8B419EF08F0010AD8B475EF18
:1014AE0008F0030AD8B4D1EF08F0010AD8B42DEF32
:1014BE0009F0070AD8B489EF09F0010AD8B4E4EFAD
:1014CE0009F06AEF0AF047C039F048C03AF049C057
:1014DE003BF04AC03CF02FEC13F03950AF6E47C0D2
:1014EE0039F048C03AF049C03BF04AC03CF02FEC0E
:1014FE0013F03AC039F03A6A3950B06E12002C50DF
:10150E00800B356E2C502C24376E2BAE91EF0AF0DB
:10151E0093EF0AF094EF0AF037803750D8B49AEF71
:10152E000AF09CEF0AF0B1EF0AF03728D8A4A2EF28
:10153E000AF0A4EF0AF0ACEF0AF0000E296E000ECE
:10154E002A6E000E2B6E000E2C6E2B8E000E2C6E45
:10155E00B9EF0AF0000E296E000E2A6E000E2B6EE9
:10156E00000E2C6E3050800B366E35503618D8B4B7
:10157E00C3EF0AF0C5EF0AF0C6EF0AF0358C305013
:10158E003024366E2FAECEEF0AF0D0EF0AF0D1EF48
:10159E000AF036803650D8B4D7EF0AF0D9EF0AF0F9
:1015AE00EEEF0AF03628D8A4DFEF0AF0E1EF0AF0EA
:1015BE00E9EF0AF0000E2D6E000E2E6E000E2F6E4D
:1015CE00000E306E2F8E000E306EF6EF0AF0000E0B
:1015DE002D6E000E2E6E000E2F6E000E306E3750DA
:1015EE00365CD8B0FDEF0AF0FFEF0AF026EF0BF0F5
:1015FE0035AC04EF0BF006EF0BF008EF0BF0800E9E
:10160E00351A37C038F036C037F038C036F029C03A
:10161E0038F02DC029F038C02DF02AC038F02EC079
:10162E002AF038C02EF02BC038F02FC02BF038C067
:10163E002FF02CC038F030C02CF038C030F0000E37
:10164E00386E375036C031F0326A315E000E325A83
:10165E0032BE3BEF0BF0325009E11A0E315CD8A0CE
:10166E003BEF0BF03DEF0BF074EF0BF029502A100F
:10167E002B102C10D8A446EF0BF049EF0BF0010EF7
:10168E004AEF0BF0000E386E000E296E000E2A6E19
:10169E00000E2B6E000E2C6E36C037F07DEF0BF069
:1016AE0038A05CEF0BF05EEF0BF064EF0BF0D89010
:1016BE0038300109386E66EF0BF0D890383229A019
:1016CE006BEF0BF06DEF0BF06EEF0BF0388E2C34E2
:1016DE002C322B322A322932372A3650375CD8A098
:1016EE007BEF0BF07DEF0BF057EF0BF035BC82EF7D
:1016FE000BF084EF0BF0C4EF0BF03750D8A48AEF49
:10170E000BF08CEF0BF096EF0BF0000E296E000E27
:10171E002A6E000E2B6E000E2C6EE5EF0CF02D5087
:10172E0029262E502A222F502B2230502C222CA02C
:10173E00A3EF0BF0A5EF0BF051EF0CF038A0AAEFD2
:10174E000BF0ACEF0BF0B2EF0BF0D8903830010984
:10175E00386EB4EF0BF0D890383229A0B9EF0BF0F9
:10176E00BBEF0BF0BCEF0BF0388E2C342C322B323F
:10177E002A322932372A51EF0CF02D50295C2E5087
:10178E002A582F502B582C50800A316E3050800A18
:10179E003158D8B0D5EF0BF0D7EF0BF002EF0CF0BD
:1017AE0029502D5C316E2A502E58326E2B502F58E8
:1017BE00336E2C503058346EFF0E3124296EFF0ECE
:1017CE0032202A6EFF0E33202B6EFF0E34202C6E2D
:1017DE00800E351A386C3850D8A4F8EF0BF0FAEFAB
:1017EE000BF00AEF0CF0010E2926000E2A222B22F6
:1017FE002C220AEF0CF02D50295E2E502A5A2F5013
:10180E002B5A30502C5A29502A102B102C10D8A499
:10181E0013EF0CF015EF0CF04AEF0CF03850D8A483
:10182E001BEF0CF01DEF0CF04AEF0CF0000E296EC2
:10183E00000E2A6E000E2B6E000E2C6EE5EF0CF0D5
:10184E00D89029362A362B362C3638AE31EF0CF09E
:10185E0033EF0CF034EF0CF0298038A039EF0CF098
:10186E003BEF0CF03FEF0CF0D880383641EF0CF028
:10187E00D89038363750D8B447EF0CF049EF0CF00B
:10188E004AEF0CF037062BAE4FEF0CF051EF0CF089
:10189E0027EF0CF0000E366E38AE58EF0CF05AEF04
:1018AE000CF072EF0CF038C031F07F0E3116D8B458
:1018BE0063EF0CF065EF0CF069EF0CF0010E366E75
:1018CE0072EF0CF029A06EEF0CF070EF0CF072EFCF
:1018DE000CF065EF0CF03650D8B478EF0CF07AEFD0
:1018EE000CF0A5EF0CF0010E2926000E2A222B2259
:1018FE002C222CA085EF0CF087EF0CF0A5EF0CF04E
:10190E0029C031F02AC032F02BC033F02CC034F095
:10191E003434343233323232313231C029F032C0C3
:10192E002AF033C02BF034C02CF03728D8B4A2EFF5
:10193E000CF0A4EF0CF0A5EF0CF0372A3728D8B432
:10194E00ABEF0CF0ADEF0CF0B5EF0CF03750D8A4B8
:10195E00B3EF0CF0B5EF0CF0C7EF0CF0000E296EE4
:10196E00000E2A6E000E2B6E000E2C6E3750D8A471
:10197E00C3EF0CF0C5EF0CF0C7EF0CF0000E356E98
:10198E0037A0CCEF0CF0CEEF0CF0D1EF0CF02B8E8D
:10199E00D2EF0CF02B9ED89037302C6E35AEDAEF9E
:1019AE000CF0DCEF0CF0DDEF0CF02C8E29C029F0E2
:1019BE002AC02AF02BC02BF02CC02CF012000600EF
:1019CE00F2A8ECEF0CF0EEEF0CF0F7EF0CF0F2A249
:1019DE00F3EF0CF0F5EF0CF0F7EF0CF089EC18F0DC
:1019EE00F0A6FCEF0CF0FEEF0CF007EF0DF0F0A000
:1019FE0003EF0DF005EF0DF007EF0DF087EC18F08B
:101A0E00F0A80CEF0DF00EEF0DF017EF0DF0F0A2A9
:101A1E0013EF0DF015EF0DF017EF0DF085EC18F03C
:101A2E00F2A61CEF0DF01EEF0DF039EF0DF0F2A047
:101A3E0023EF0DF025EF0DF039EF0DF081A82AEF11
:101A4E000DF02CEF0DF039EF0DF07C04D8A432EF31
:101A5E000DF034EF0DF039EF0DF0000E7C6E000E30
:101A6E004AEC18F0F2A63EEF0DF040EF0DF05BEFF2
:101A7E000DF0F2A045EF0DF047EF0DF05BEF0DF01E
:101A8E0081B84CEF0DF04EEF0DF05BEF0DF07C508A
:101A9E00D8A454EF0DF056EF0DF05BEF0DF0010EE4
:101AAE007C6E010E4AEC18F0F2A660EF0DF062EFBC
:101ABE000DF07DEF0DF0F2A067EF0DF069EF0DF078
:101ACE007DEF0DF081AA6EEF0DF070EF0DF07DEF52
:101ADE000DF07B04D8A476EF0DF078EF0DF07DEFCE
:101AEE000DF0000E7B6E000E3DEC18F0F2A682EFAC
:101AFE000DF084EF0DF09FEF0DF0F2A089EF0DF0D9
:101B0E008BEF0DF09FEF0DF081BA90EF0DF092EF8D
:101B1E000DF09FEF0DF07B50D8A498EF0DF09AEFDB
:101B2E000DF09FEF0DF0010E7B6E010E3DEC18F0E7
:101B3E00F2A6A4EF0DF0A6EF0DF0C1EF0DF0F2A09E
:101B4E00ABEF0DF0ADEF0DF0C1EF0DF081ACB2EFDC
:101B5E000DF0B4EF0DF0C1EF0DF07A04D8A4BAEF8A
:101B6E000DF0BCEF0DF0C1EF0DF0000E7A6E000E11
:101B7E0030EC18F0F2A6C6EF0DF0C8EF0DF0E3EF63
:101B8E000DF0F2A0CDEF0DF0CFEF0DF0E3EF0DF075
:101B9E0081BCD4EF0DF0D6EF0DF0E3EF0DF07A50DF
:101BAE00D8A4DCEF0DF0DEEF0DF0E3EF0DF0010E3B
:101BBE007A6E010E30EC18F0F2A6E8EF0DF0EAEFB7
:101BCE000DF005EF0EF0F2A0EFEF0DF0F1EF0DF0CE
:101BDE0005EF0EF081AEF6EF0DF0F8EF0DF005EF1C
:101BEE000EF07904D8A4FEEF0DF000EF0EF005EF25
:101BFE000EF0000E796E000E23EC18F0F2A60AEF2E
:101C0E000EF00CEF0EF027EF0EF0F2A011EF0EF02B
:101C1E0013EF0EF027EF0EF081BE18EF0EF01AEF55
:101C2E000EF027EF0EF07950D8A420EF0EF022EF31
:101C3E000EF027EF0EF0010E796E010E23EC18F068
:101C4E009DAC2CEF0EF02EEF0EF037EF0EF09EAC9B
:101C5E0033EF0EF035EF0EF037EF0EF091EC18F08B
:101C6E00F2AA3CEF0EF03EEF0EF047EF0EF0F2A4AC
:101C7E0043EF0EF045EF0EF047EF0EF06DEC18F05F
:101C8E009DA04CEF0EF04EEF0EF057EF0EF09EA013
:101C9E0053EF0EF055EF0EF057EF0EF067EC18F015
:101CAE009DA25CEF0EF05EEF0EF067EF0EF09EA2BF
:101CBE0063EF0EF065EF0EF067EF0EF078EC18F0B4
:101CCE00A0A26CEF0EF06EEF0EF077EF0EF0A1A269
:101CDE0073EF0EF075EF0EF077EF0EF061EC18F07B
:101CEE009DA47CEF0EF07EEF0EF087EF0EF09EA41B
:101CFE0083EF0EF085EF0EF087EF0EF08FEC18F0FD
:101D0E00A0A08CEF0EF08EEF0EF097EF0EF0A1A0CC
:101D1E0093EF0EF095EF0EF097EF0EF08DEC18F0AE
:101D2E009DA89CEF0EF09EEF0EF0A7EF0EF09EA872
:101D3E00A3EF0EF0A5EF0EF0A7EF0EF08BEC18F060
:101D4E009DAAACEF0EF0AEEF0EF0B7EF0EF09EAA1E
:101D5E00B3EF0EF0B5EF0EF0B7EF0EF095EC18F006
:101D6E009DA6BCEF0EF0BEEF0EF0C7EF0EF09EA6D6
:101D7E00C3EF0EF0C5EF0EF0C7EF0EF093EC18F0B8
:101D8E00A0A6CCEF0EF0CEEF0EF0D7EF0EF0A1A680
:101D9E00D3EF0EF0D5EF0EF0D7EF0EF094EC18F067
:101DAE007E9211001350800B206E13501324276E59
:101DBE0012AEE4EF0EF0E6EF0EF0E7EF0EF0278036
:101DCE002750D8B4EDEF0EF0EFEF0EF004EF0FF05A
:101DDE002728D8A4F5EF0EF0F7EF0EF0FFEF0EF078
:101DEE00000E106E000E116E000E126E000E136EAF
:101DFE00128E000E136E0CEF0FF0000E106E000E12
:101E0E00116E000E126E000E136E1750800B201AFC
:101E1E0017501724286E16AE17EF0FF019EF0FF0AC
:101E2E001AEF0FF028802850D8B420EF0FF022EFD1
:101E3E000FF037EF0FF02828D8A428EF0FF02AEF75
:101E4E000FF032EF0FF0000E146E000E156E000E36
:101E5E00166E000E176E168E000E176E3FEF0FF0F9
:101E6E00000E146E000E156E000E166E000E176E1E
:101E7E001450151016101710D8A448EF0FF04AEF93
:101E8E000FF062EF0FF0000E106E000E116E000ECE
:101E9E00126E000E136E800E12127F0E1312205051
:101EAE00131210C010F011C011F012C012F013C0B6
:101EBE0013F0A5EF10F02750D8A468EF0FF06AEFDB
:101ECE000FF074EF0FF0000E106E000E116E000E7C
:101EDE00126E000E136EA5EF10F0285027C018F0EA
:101EEE00196A185E000E195A7F0E1824216E000E04
:101EFE001920226E10C01CF011C01DF012C01EF071
:101F0E0013C01FF0000E106E000E116E000E126E3A
:101F1E00000E136E000E236E000E246E000E256E44
:101F2E00000E266E000E286ED5EF0FF02850D8B496
:101F3E00A3EF0FF0A5EF0FF0BCEF0FF0D8901C360B
:101F4E001D361E361F36D890103611361236133601
:101F5E0026AEB4EF0FF0B6EF0FF0B7EF0FF0108024
:101F6E00D890233624362536263614501C5C155050
:101F7E001D5816501E5817501F58D8A0C9EF0FF0F5
:101F8E00CBEF0FF0D4EF0FF0268C14501C5E1550D3
:101F9E001D5A16501E5A17501F5A282A190E2864F9
:101FAE00DBEF0FF0DDEF0FF09DEF0FF01C501D106B
:101FBE001E101F10D8B4E6EF0FF0E8EF0FF000EF91
:101FCE0010F0238000EF10F0D89010361136123634
:101FDE00133626AEF5EF0FF0F7EF0FF0F8EF0FF028
:101FEE001080D89023362436253626362106D8A0E2
:101FFE00220612AE05EF10F007EF10F0EBEF0FF028
:10200E00000E286E26AE0EEF10F010EF10F034EF2B
:10201E0010F0FF0E2314186EFF0E2414196EFF0E0F
:10202E0025141A6E7F0E26141B6E185019101A10D6
:10203E001B10D8B425EF10F027EF10F02BEF10F097
:10204E00010E286E34EF10F010A030EF10F032EFCA
:10205E0010F034EF10F027EF10F02850D8B43AEF0C
:10206E0010F03CEF10F060EF10F0010E1026000E95
:10207E0011221222132213A047EF10F049EF10F095
:10208E0060EF10F010C018F011C019F012C01AF065
:10209E0013C01BF01B341B321A321932183218C0FF
:1020AE0010F019C011F01AC012F01BC013F0214A23
:1020BE00222A22BE6BEF10F0225008E12128D8A070
:1020CE006BEF10F06DEF10F078EF10F0000E226E47
:1020DE002168000E106E000E116E000E126E000EB4
:1020EE00136E22BE85EF10F0225006E12104D8B007
:1020FE0083EF10F085EF10F093EF10F0000E226ECC
:10210E00000E216E000E106E000E116E000E126E7D
:10211E00000E136E000E206E21C027F027A09AEF3E
:10212E0010F09CEF10F09FEF10F0128EA0EF10F059
:10213E00129ED8902730136E56EF0FF012000A6ED3
:10214E000A50D8B4ADEF10F0AFEF10F0D1EF10F0A1
:10215E0005BEB6EF10F0B4EF10F0D1EF10F002C0E4
:10216E0006F003C007F004C008F005C009F0061E13
:10217E00071E081E091E062A000E07220822092223
:10218E0006C00CF007C00DF008C00EF009C00FF02D
:10219E00D9EF10F002C00CF003C00DF004C00EF029
:1021AE0005C00FF00250031004100510D8A4E2EF82
:1021BE0010F0E4EF10F0EEEF10F0000E026E000ED5
:1021CE00036E000E046E000E056E7FEF11F0960E7C
:1021DE000B6EF8EF10F00B2AD8900F320E320D3234
:1021EE000C32000E0C14066E000E0D14076E000E4F
:1021FE000E14086EFE0E0F14096E0650071008100E
:10220E000910D8A40DEF11F00FEF11F0F2EF10F04E
:10221E001DEF11F00B2A010E0C26000E0D220E22C0
:10222E000F22D8900F320E320D320C32000E0C14DB
:10223E00066E000E0D14076E000E0E14086EFF0EC5
:10224E000F14096E0650071008100910D8A432EFAB
:10225E0011F034EF11F011EF11F03CEF11F00B060D
:10226E00D8900C360D360E360F360EBE41EF11F0ED
:10227E0043EF11F04BEF11F0020E0B6049EF11F02E
:10228E004BEF11F036EF11F00BB050EF11F052EFA3
:10229E0011F053EF11F00E9ED8900B320BC006F0DA
:1022AE00076A086A096A06C009F0086A076A066AB8
:1022BE0006500C1207500D1208500E1209500F1234
:1022CE000A50D8B46DEF11F06FEF11F077EF11F0F7
:1022DE0005BE76EF11F074EF11F077EF11F00F8E5F
:1022EE000CC002F00DC003F00EC004F00FC005F0DC
:1022FE00120047504810D8A487EF11F089EF11F063
:10230E008BEF11F025EF12F0C69A20EE04F0475035
:10231E00D9264850DA22DFA097EF11F099EF11F08D
:10232E00A1EF11F047C043F048C044F0D0EC15F0D7
:10233E00E4EF11F020EE04F04750D9264850DA228F
:10234E00DFB0ACEF11F0AEEF11F0E4EF11F020EED4
:10235E0004F04750D9264850DA22DFA6B9EF11F023
:10236E00BBEF11F0BEEF11F0C58ECCEF11F020EEE9
:10237E0004F04750D9264850DA22DFB6C9EF11F0E3
:10238E00CBEF11F0CCEF11F0C59EC69EC69CC68851
:10239E0020EE03F04750D9264850DA22DF50C86E9F
:1023AE0020EE02F04750D9264850DA22DF50496E0F
:1023BE00C6504918F00B4918C66E7FEC18F020EE87
:1023CE0004F04750D9264850DA22DFB2F1EF11F06F
:1023DE00F3EF11F0F6EF11F0C79E04EF12F020EEBE
:1023EE0004F04750D9264850DA22DFA201EF12F04E
:1023FE0003EF12F004EF12F0C78E20EE04F04750F8
:10240E00D9264850DA22DFA40FEF12F011EF12F0A6
:10241E0014EF12F0C78C22EF12F020EE04F04750AA
:10242E00D9264850DA22DFB41FEF12F021EF12F056
:10243E0022EF12F0C79CC68A89EF11F0010E12002E
:10244E00086E740E026E000E036EC2EC17F07D6EF7
:10245E001A0E076EF80EE82EFED7072EFCD700D008
:10246E00740E026E000E036E08C004F00A0E056EA6
:10247E00000E066ED9EC16F07D6E1A0E076EF80E73
:10248E00E82EFED7072EFCD700D0740E026E000E7B
:10249E00036E000E046E0A0E056E000E066ED9EC6B
:1024AE0016F07D6E1A0E076EF80EE82EFED7072E6A
:1024BE00FCD700D0740E026E000E036EDBEC17F02C
:1024CE007D6E1A0E076EF80EE82EFED7072EFCD77D
:1024DE0000D0740E026E000E036E0828046E0A0EF3
:1024EE00056E000E066ED9EC16F07D6E1A0E076E96
:1024FE00F80EE82EFED7072EFCD700D0740E026E13
:10250E00000E036E010E046E090E056E000E066EB1
:10251E0066EC16F07D6E1A0E076EF80EE82EFED7DC
:10252E00072EFCD700D0740E026E000E036EA9ECBF
:10253E0017F07D6E1A0E076EF80EE82EFED7072ED8
:10254E00FCD700D009501200096E740E026E000EF8
:10255E00036EC2EC17F07D6E1A0E086EF80EE82EA2
:10256E00FED7082EFCD700D0740E026E000E036E3E
:10257E0009C004F00B0E056E000E066ED9EC16F0B7
:10258E007D6E1A0E086EF80EE82EFED7082EFCD7BA
:10259E0000D0740E026E000E036E07C004F00B0E18
:1025AE00056E000E066ED9EC16F07D6E1A0E086ED4
:1025BE00F80EE82EFED7082EFCD700D0740E026E51
:1025CE00000E036EDBEC17F07D6E1A0E086EF80E21
:1025DE00E82EFED7082EFCD700D0740E026E000E29
:1025EE00036E0928046E0B0E056E000E066ED9ECF6
:1025FE0016F07D6E1A0E086EF80EE82EFED7082E17
:10260E00FCD700D0740E026E000E036E010E046E27
:10261E000A0E056E000E066E66EC16F07D6E1A0E34
:10262E00086EF80EE82EFED7082EFCD700D0740EDA
:10263E00026E000E036EA9EC17F07D6E1A0E086E78
:10264E00F80EE82EFED7082EFCD700D00A50120046
:10265E003B343C34426E4250D8A438EF13F03AEF7C
:10266E0013F044EF13F0000E396E000E3A6E000EAA
:10267E003B6E000E3C6EB1EF13F039C03DF03AC028
:10268E003EF03BC03FF03CC040F0200E54EF13F044
:10269E00D89040323F323E323D32E82E4FEF13F0AB
:1026AE003D50416E3B8EFF0E3916FF0E3A16FF0E51
:1026BE003B16000E3C16960E425E42BE6BEF13F0BA
:1026CE0069EF13F081EF13F04250800A970FD8B0E4
:1026DE0073EF13F075EF13F077EF13F03AEF13F08B
:1026EE00D8903C323B323A323932423E77EF13F0D9
:1026FE0099EF13F01F0E426487EF13F089EF13F07A
:10270E0091EF13F03AEF13F0D89039363A363B3654
:10271E003C3642064250D8A497EF13F099EF13F0CF
:10272E008BEF13F04150D8B49FEF13F0A1EF13F0DD
:10273E00A9EF13F03C1E3B1E3A1E396C000E3A22D6
:10274E003B223C2239C039F03AC03AF03BC03BF054
:10275E003CC03CF01200086E740E026E000E036E4A
:10276E00C2EC17F07D6E1A0E076EF80EE82EFED72D
:10277E00072EFCD700D0740E026E000E036ED00E24
:10278E00046E0A0E056E000E066ED9EC16F07D6E06
:10279E001A0E076EF80EE82EFED7072EFCD700D0C5
:1027AE00740E026E000E036E08C004F00A0E056E63
:1027BE00000E066ED9EC16F07D6E1A0E076EF80E30
:1027CE00E82EFED7072EFCD700D0740E026E000E38
:1027DE00036EDBEC17F07D6E030E076E980EE82E7F
:1027EE00FED7072EFCD7740E026E000E036ED10EAE
:1027FE00046E0A0E056E000E066ED9EC16F07D6E96
:10280E001A0E076EF80EE82EFED7072EFCD700D054
:10281E00740E026E000E036E010E046E090E056E2E
:10282E00000E066E66EC16F07D6E1A0E076EF80E32
:10283E00E82EFED7072EFCD700D0740E026E000EC7
:10284E00036EA9EC17F07D6E1A0E076EF80EE82EC9
:10285E00FED7072EFCD700D00950120020EE05F04F
:10286E000250D9260350DA22DFAA40EF14F042EFCD
:10287E0014F0A4EF14F0AB8820EE0AF00250D92623
:10288E000350DA22DECF94F0DDCF95F020EE0CF07F
:10289E000250D9260350DA22DECF92F0DDCF93F02C
:1028AE0020EE0EF00250D9260350DA22DECF90F041
:1028BE00DDCF91F020EE05F00250D9260350DA223A
:1028CE00DFAC6CEF14F06EEF14F074EF14F09D8A21
:1028DE009D8AF28EF28C82EF14F020EE05F00250FB
:1028EE00D9260350DA22DFBC7FEF14F081EF14F00B
:1028FE0082EF14F09D9A20EE05F00250D926035077
:10290E00DA22DFAE8DEF14F08FEF14F092EF14F0A9
:10291E00AB8CB2EF14F020EE05F00250D926035026
:10292E00DA22DFBE9DEF14F09FEF14F0A2EF14F049
:10293E00AB9CB2EF14F0B2EF14F020EE05F00250A3
:10294E00D9260350DA22DFBAAFEF14F0B1EF14F04C
:10295E00B2EF14F0AB98120020EE03F00250D9261D
:10296E000350DA22DFAABEEF14F0C0EF14F00EEF20
:10297E0015F0AC8A20EE08F00250D9260350DA2268
:10298E00DECF96F0DDCF97F020EE03F00250D92681
:10299E000350DA22DFACD6EF14F0D8EF14F0DEEFEE
:1029AE0014F09D889D88F28EF28CECEF14F020EEE0
:1029BE0003F00250D9260350DA22DFBCE9EF14F0FF
:1029CE00EBEF14F0ECEF14F09D9820EE03F00250B4
:1029DE00D9260350DA22DFAEF7EF14F0F9EF14F038
:1029EE00FCEF14F0AC8C1CEF15F020EE03F002504F
:1029FE00D9260350DA22DFBE07EF15F009EF15F0E6
:102A0E000CEF15F0AC9C1CEF15F01CEF15F020EE42
:102A1E0003F00250D9260350DA22DFBA19EF15F06F
:102A2E001BEF15F01CEF15F0AC9A12000A6E740E27
:102A3E00026E000E036EC2EC17F07D6E1A0E096E5A
:102A4E00F80EE82EFED7092EFCD700D0740E026EBB
:102A5E00000E036E0AC004F00B0E056E000E066E1D
:102A6E00D9EC16F07D6E1A0E096EF80EE82EFED712
:102A7E00092EFCD700D0740E026E000E036E07C036
:102A8E0004F00B0E056E000E066ED9EC16F07D6E80
:102A9E001A0E096EF80EE82EFED7092EFCD700D0BE
:102AAE00740E026E000E036E08C004F00B0E056E5F
:102ABE00000E066ED9EC16F07D6E1A0E096EF80E2B
:102ACE00E82EFED7092EFCD700D0740E026E000E33
:102ADE00036EA9EC17F07D6E1A0E096EF80EE82E35
:102AEE00FED7092EFCD700D0120056380F0B300F30
:102AFE000001B26F56500F0B300FB36F2D0EB46F27
:102B0E0055380F0B300FB56F55500F0B300FB66F8A
:102B1E002D0EB76F54380F0B300FB86F54500F0B7C
:102B2E00300FB96F2F0EBA6F51380F0B300FBB6FBE
:102B3E0051500F0B300FBC6F2D0EBD6F52380F0B57
:102B4E00300FBE6F52500F0B300FBF6F2D0EC06F78
:102B5E0053380F0B300FC16F53500F0B300FC26F26
:102B6E000D0EC36F110E036E100E046E000E066E68
:102B7E00070E056E0FEC17F07D6EB20E036E000E93
:102B8E00046E000E066E120E056E0FEC17F07D6EC3
:102B9E00120020EE02F04350D9264450DA22DF50C4
:102BAE00456EC6504518F00B4518C66E000E2D6EBC
:102BBE00000E2E6E800E2F6EBF0E306E43C0D9FFEC
:102BCE0044C0DAFFDECF45F0DDCF46F045C002F05F
:102BDE0046C003F0046A056A000EA6EC10F002C0AF
:102BEE0014F003C015F004C016F005C017F0000E67
:102BFE00106E240E116EF40E126E490E136ED9EC79
:102C0E000EF010C029F011C02AF012C02BF013C024
:102C1E002CF086EC0AF029C039F02AC03AF02BC00D
:102C2E003BF02CC03CF02FEC13F03950C86E120064
:102C3E00E60EF66E300EF76E000EF86E01EE0BF02D
:102C4E0010EE0AF00900F5CFEEFFE550E150FAE183
:102C5E00E60EF66E2F0EF76E000EF86E00EED4F046
:102C6E0010EE24F00900F5CFEEFFE550E150FAE149
:102C7E00040EF66E310EF76E000EF86E00EE79F061
:102C8E0010EE05F00900F5CFEEFFE550E150FAE148
:102C9E0001EE00F00B0EEE6AE806FDE100EE80F0AC
:102CAE00540EEE6AE806FDE100EE51F0280EEE6AD3
:102CBE00E806FDE17E907E920001A2EF16F0025032
:102CCE000310D8B46DEF16F06FEF16F078EF16F024
:102CDE0005500610D8A476EF16F078EF16F07AEFBE
:102CEE0016F0A0EF16F0C586C7A080EF16F082EFA3
:102CFE0016F07BEF16F005C0D9FF06C0DAFFC9CF7C
:102D0E00DFFF0450D8A48EEF16F090EF16F094EF7C
:102D1E0016F0C59AC58878EF16F00404D8A49AEF79
:102D2E0016F09CEF16F078EF16F0C58AC58878EF8E
:102D3E0016F0010E12007CEC18F0080E076E050E50
:102D4E00086EA20E1DEC15F0420EE82EFED700D036
:102D5E00080E076E060E086EA60E1DEC15F0420E3E
:102D6E00E82EFED700D0080E076EA20EABEC12F0C6
:102D7E006B6E080E076EA60EABEC12F06A6E69EC67
:102D8E0017F020EE80F0050EEBCFDBFFE806FCE23D
:102D9E007CEC15F09A0E27EC12F0696EC6EF16F069
:102DAE0007EF00F002500310D8B4E0EF16F0E2EF98
:102DBE0016F0EBEF16F005500610D8A4E9EF16F05A
:102DCE00EBEF16F0EDEF16F00DEF17F004C0C9FFA4
:102DDE009EA6F4EF16F0F6EF16F0EFEF16F09E96B5
:102DEE00C5BCFCEF16F0FEEF16F005EF17F005C0B0
:102DFE00D9FF06C0DAFFDF6AEBEF16F005C0D9FF88
:102E0E0006C0DAFF010EDF6EEBEF16F0010E1200B8
:102E1E00010E096E000E0B6E000E0A6E000E0B6E8A
:102E2E00000E0A6E37EF17F00A500324076E0B5090
:102E3E000420086E07C0F6FF08C0F7FF000EF86EFC
:102E4E000F0EF76403D00800F55005D0F6CFE9FF5A
:102E5E00F7CFEAFFEF5016EC18F0096E0A4A0B2A6C
:102E6E0005500A5C06500B58D8A040EF17F042EF01
:102E7E0017F01BEF17F0095012004F505010D8A446
:102E8E004BEF17F04DEF17F04FEF17F067EF17F00E
:102E9E004FC043F050C044F00FEC08F0AB9E948C42
:102EAE00948E4FC002F050C003F0B3EC14F04FC03C
:102EBE0002F050C003F035EC14F0AB8E4DEF17F06E
:102ECE00010E1200000EB2EC13F0536E010EB2ECB6
:102EDE0013F0526E020EB2EC13F0516E040EB2EC01
:102EEE0013F0566E050EB2EC13F0556E060EB2ECE4
:102EFE0013F0546E20EE51F000EE0BF0050EDBCF0A
:102F0E00EBFFE806FCE21200250E0001C56F800EF5
:102F1E00C46F000EC66FC78BC79DC79FC98BC99D57
:102F2E00C99F000ECC6F000ECD6F000ECE6F000E3F
:102F3E00CF6F000ED06F000ED16F000ED26F000E4D
:102F4E00D36F120002500310D8A4B0EF17F0B2EFF7
:102F5E0017F0B4EF17F0C0EF17F0C584C5B4BAEF91
:102F6E0017F0BCEF17F0B5EF17F09E96C750B2EF03
:102F7E0017F0010E120002500310D8A4C9EF17F07B
:102F8E00CBEF17F0CDEF17F0D9EF17F0C580C5B026
:102F9E00D3EF17F0D5EF17F0CEEF17F09E96C75080
:102FAE00CBEF17F0010E120002500310D8A4E2EF7F
:102FBE0017F0E4EF17F0E6EF17F0F1EF17F0C58218
:102FCE00C5B2ECEF17F0EEEF17F0E7EF17F09E96A5
:102FDE00E4EF17F0010E1200800F810F820F830FA6
:102FEE00840F890F8A0F8B0F8C0F8D0F920F930FFB
:102FFE00940F950F960F020A121A222A57EC18F008
:10300E00740E476E000E486E80EC11F08BEC17F0CC
:10301E00C40E4F6E000E506E44EC17F01200026E8E
:10302E00ACA21CEF18F01EEF18F017EF18F09D88E9
:10303E0002C0ADFF010E1200016EF2900150D8A435
:10304E002BEF18F02DEF18F02FEF18F02FEF18F0E0
:10305E001200016EF2900150D8A438EF18F03AEF3A
:10306E0018F03CEF18F03CEF18F01200016EF290E1
:10307E000150D8A445EF18F047EF18F049EF18F0BB
:10308E0049EF18F01200016EF2900150D8A452EFE1
:10309E0018F054EF18F056EF18F056EF18F0120023
:1030AE00860E756EA00E746E7880080E766E78940D
:1030BE0078821200A1925850B36E57C0B2FF120020
:1030CE009E905A50CF6E59C0CEFF1200F2945C50B3
:1030DE00D76E5BC0D6FF1200323A030B131B232BA5
:1030EE00333B9E926CC0CCFF120005EC18F0120020
:0B30FE0094869488120001010101017A
:10310A00F0921200F0901200F29212009D981200B2
:10311A00A19012009E9412009E9C120012001200AE
:02312A00120091
:020000040030CA
:0E000000FF02091EFF8181FF0FC00FE00F40BD
:00000001FF
