:0400000007EF00F016
:0A0008007382B5ED11F085EF20F0D2
:10100000003738392F3435362A3132332D23303DED
:101010002B46616E204F4646202F2048656174653F
:1010200072204F4646200054656D7065726174757C
:101030007265203A2000486561746572204F4E2029
:101040000046616E204F4E200054696D65203A20A5
:0D1050000044617465203A2000256900000D
:10105E001AEC25F030EC23F08A0E136E010E146E8E
:10106E00000E156E6B0E166E000E176E86EC21F0CE
:10107E000001EE6FF60E1E6E280E1F6E9C0E206E79
:10108E00400E216E6BC00CF06CC00DF00E6A0F6A34
:10109E00000E85EC15F00CC01AF00DC01BF00EC042
:1010AE001CF00FC01DF0A0EC0FF01AC043F01BC0D7
:1010BE0044F01CC045F01DC046F0EEEC1AF043C0E3
:1010CE0071F044C072F071C00CF072C00DF0000EE1
:1010DE000F6E0A0E0E6E4CEC21F00CC071F00DC0AE
:1010EE0072F071C091F172C092F1E70E0101936F2F
:1010FE00000E946FECEC1DF00001EE6FEF0E276EFC
:10110E00000E286E010E296E010E2A6E270E2B6E12
:10111E00100E2C6EA8EC1EF00001EE6FEF0E276E77
:10112E00000E286E010E296E0E0E2A6EE70E2B6E25
:10113E00000E2C6EA8EC1EF00001EE6F410E5E6EDE
:10114E00EE0EE82EFED75E2EFCD700D0725009E1CF
:10115E001F0E715CD8A0B6EF08F0B8EF08F064EF80
:10116E0009F0000E606E000E5F6E6150D8A4C2EFE3
:10117E0008F0C4EF08F042EF09F0EF0E186E000E03
:10118E00196E010E1A6E3DEC20F00001EE6FEF0E9F
:10119E00276E000E286E010E296E010E2A6E270E86
:1011AE002B6E100E2C6EA8EC1EF00001EE6F8A0E48
:1011BE00136E010E146E000E156E6B0E166E000E73
:1011CE00176E86EC21F00001EE6FF60E1E6E280EE5
:1011DE001F6E9C0E206E400E216E6BC00CF06CC00C
:1011EE000DF00E6A0F6A000E85EC15F00CC01AF0A9
:1011FE000DC01BF00EC01CF00FC01DF0A0EC0FF0C8
:10120E001AC043F01BC044F01CC045F01DC046F090
:10121E00EEEC1AF043C071F044C072F071C00CF0E5
:10122E0072C00DF0000E0F6E0A0E0E6E4CEC21F019
:10123E000CC071F00DC072F071C091F172C092F1DC
:10124E00E70E0101936F000E946FECEC1DF00001A0
:10125E00EE6FEF0E276E000E286E010E296E0E0E2B
:10126E002A6EE70E2B6E000E2C6EA8EC1EF00001FF
:10127E00EE6F010E616EEF0E276E000E286E020EDF
:10128E00296E010E2A6E410E2B6E100E2C6EA8ECDE
:10129E001EF00001EE6FFB0E156E000E166EB2EC18
:1012AE0023F00001EE6FF90E156E000E166E93EC24
:1012BE0023F00001EE6F33EF08F0725007E1140EC9
:1012CE00715CD8B06DEF09F06FEF09F01BEF0AF00B
:1012DE00000E616E000E5F6EF90E156E000E166E2C
:1012EE00B2EC23F00001EE6FFB0E156E000E166EC3
:1012FE0093EC23F00001EE6F6050D8A489EF09F053
:10130E008BEF09F009EF0AF0EF0E186E000E196E52
:10131E00010E1A6E3DEC20F00001EE6FEF0E276EFF
:10132E00000E286E010E296E010E2A6E270E2B6EF0
:10133E00100E2C6EA8EC1EF00001EE6F8A0E136ECE
:10134E00010E146E000E156E6B0E166E000E176EDD
:10135E0086EC21F00001EE6FF60E1E6E280E1F6E4B
:10136E009C0E206E400E216E6BC00CF06CC00DF00A
:10137E000E6A0F6A000E85EC15F00CC01AF00DC047
:10138E001BF00EC01CF00FC01DF0A0EC0FF01AC029
:10139E0043F01BC044F01CC045F01DC046F0EEECFF
:1013AE001AF043C071F044C072F071C00CF072C0FC
:1013BE000DF0000E0F6E0A0E0E6E4CEC21F00CC0EE
:1013CE0071F00DC072F071C091F172C092F1E70E22
:1013DE000101936F000E946FECEC1DF00001EE6FA7
:1013EE00EF0E276E000E286E010E296E0E0E2A6E5F
:1013FE00E70E2B6E000E2C6EA8EC1EF00001EE6FA9
:10140E00010E606EEF0E276E000E286E020E296E14
:10141E00010E2A6E360E2B6E100E2C6EA8EC1EF0E0
:10142E000001EE6F33EF08F0000E616E000E606E7D
:10143E00FB0E156E000E166E93EC23F00001EE6F90
:10144E00F90E156E000E166E93EC23F00001EE6F82
:10145E005F50D8A435EF0AF037EF0AF0B5EF0AF077
:10146E00EF0E186E000E196E010E1A6E3DEC20F086
:10147E000001EE6FEF0E276E000E286E010E296E24
:10148E00010E2A6E270E2B6E100E2C6EA8EC1EF07F
:10149E000001EE6F8A0E136E010E146E000E156EA5
:1014AE006B0E166E000E176E86EC21F00001EE6FBD
:1014BE00F60E1E6E280E1F6E9C0E206E400E216EB6
:1014CE006BC00CF06CC00DF00E6A0F6A000E85EC4E
:1014DE0015F00CC01AF00DC01BF00EC01CF00FC0A2
:1014EE001DF0A0EC0FF01AC043F01BC044F01CC05E
:1014FE0045F01DC046F0EEEC1AF043C071F044C04A
:10150E0072F071C00CF072C00DF0000E0F6E0A0E6C
:10151E000E6E4CEC21F00CC071F00DC072F071C06B
:10152E0091F172C092F1E70E0101936F000E946F6C
:10153E00ECEC1DF00001EE6FEF0E276E000E286E24
:10154E00010E296E0E0E2A6EE70E2B6E000E2C6EFD
:10155E00A8EC1EF00001EE6F010E5F6EEF0E276E0F
:10156E00000E286E020E296E010E2A6E110E2B6EC3
:10157E00100E2C6EA8EC1EF00001EE6F33EF08F08B
:10158E0007EF00F0000E516E000E526E000E536EFD
:10159E00000E546EF9EF0CF0AC98AC94B8964DC0AA
:1015AE00D9FF4EC0DAFFDECF4FF0DDCF50F04FC087
:1015BE000CF050C00DF00E6A0F6A000E85EC15F09F
:1015CE000CC01EF00DC01FF00EC020F00FC021F099
:1015DE00000E1A6E240E1B6E740E1C6E4A0E1D6EBD
:1015EE00B8EC13F01AC055F01BC056F01CC057F0E3
:1015FE001DC058F0000E1E6E000E1F6E800E206E67
:10160E00420E216E55C01AF056C01BF057C01CF08A
:10161E0058C01DF0B8EC13F01AC033F01BC034F0F4
:10162E001CC035F01DC036F0000E376E000E386E41
:10163E00800E396EBF0E3A6E40EC0DF033C051F095
:10164E0034C052F035C053F036C054F024EF0DF0D4
:10165E00AC98AC84B8964DC0D9FF4EC0DAFFDECF41
:10166E004FF0DDCF50F04FC00CF050C00DF00E6AB1
:10167E000F6A000E85EC15F00CC01EF00DC01FF0A9
:10168E000EC020F00FC021F0000E1A6E240E1B6E3D
:10169E00740E1C6E4A0E1D6EB8EC13F01AC055F087
:1016AE001BC056F01CC057F01DC058F0000E1E6E29
:1016BE00000E1F6E800E206E410E216E55C01AF068
:1016CE0056C01BF057C01CF058C01DF0B8EC13F0FC
:1016DE001AC033F01BC034F01CC035F01DC036F0FC
:1016EE00000E376E000E386E800E396EBF0E3A6EDB
:1016FE0040EC0DF033C051F034C052F035C053F011
:10170E0036C054F024EF0DF0AC98AC94B8864DC0B2
:10171E00D9FF4EC0DAFFDECF4FF0DDCF50F04FC015
:10172E000CF050C00DF00E6A0F6A000E85EC15F02D
:10173E000CC01EF00DC01FF00EC020F00FC021F027
:10174E00000E1A6E240E1B6E740E1C6E4A0E1D6E4B
:10175E00B8EC13F01AC055F01BC056F01CC057F071
:10176E001DC058F0000E1E6E000E1F6E800E206EF5
:10177E00410E216E55C01AF056C01BF057C01CF01A
:10178E0058C01DF0B8EC13F01AC033F01BC034F083
:10179E001CC035F01DC036F0000E376E000E386ED0
:1017AE00800E396EBF0E3A6E40EC0DF033C051F024
:1017BE0034C052F035C053F036C054F024EF0DF063
:1017CE00AC98AC84B8864DC0D9FF4EC0DAFFDECFE0
:1017DE004FF0DDCF50F04FC00CF050C00DF00E6A40
:1017EE000F6A000E85EC15F00CC01EF00DC01FF038
:1017FE000EC020F00FC021F0000E1A6E240E1B6ECC
:10180E00740E1C6E4A0E1D6EB8EC13F01AC055F015
:10181E001BC056F01CC057F01DC058F0000E1E6EB7
:10182E00000E1F6E800E206E400E216E55C01AF0F7
:10183E0056C01BF057C01CF058C01DF0B8EC13F08A
:10184E001AC033F01BC034F01CC035F01DC036F08A
:10185E00000E376E000E386E800E396EBF0E3A6E69
:10186E0040EC0DF033C051F034C052F035C053F09F
:10187E0036C054F024EF0DF0AC88B8964DC0D9FFA9
:10188E004EC0DAFFDECF4FF0DDCF50F04FC00CF080
:10189E0050C00DF00E6A0F6A000E85EC15F00CC0EC
:1018AE001EF00DC01FF00EC020F00FC021F0000E74
:1018BE001A6E240E1B6E740E1C6E4A0E1D6EB8EC44
:1018CE0013F01AC055F01BC056F01CC057F01DC0C7
:1018DE0058F0000E1E6E000E1F6E800E206E400E13
:1018EE00216E55C01AF056C01BF057C01CF058C0E0
:1018FE001DF0B8EC13F01AC033F01BC034F01CC04E
:10190E0035F01DC036F0000E376E000E386E800EAC
:10191E00396EBF0E3A6E40EC0DF033C051F034C04C
:10192E0052F035C053F036C054F024EF0DF0AC88B1
:10193E00B8864DC0D9FF4EC0DAFFDECF4FF0DDCFF7
:10194E0050F04FC00CF050C00DF00E6A0F6A000E32
:10195E0085EC15F00CC01EF00DC01FF00EC020F06F
:10196E000FC021F0000E1A6E240E1B6E740E1C6E2C
:10197E004A0E1D6EB8EC13F01AC055F01BC056F08F
:10198E001CC057F01DC058F0000E1E6E000E1F6ECC
:10199E00800E206E400E216E55C01AF056C01BF000
:1019AE0057C01CF058C01DF0B8EC13F01AC033F03D
:1019BE001BC034F01CC035F01DC036F0000E376E63
:1019CE00000E386E800E396EBF0E3A6E40EC0DF082
:1019DE0033C051F034C052F035C053F036C054F01D
:1019EE0024EF0DF020EE02F04D50D9264E50DA22A3
:1019FE00DF504F6E506A5050000AD8B409EF0DF008
:101A0E0024EF0DF04F50000AD8B4D3EF0AF0010ABC
:101A1E00D8B42FEF0BF0030AD8B48BEF0BF0010AFA
:101A2E00D8B4E7EF0BF0070AD8B443EF0CF0010A75
:101A3E00D8B49EEF0CF024EF0DF051C043F052C01D
:101A4E0044F053C045F054C046F0EEEC1AF043504B
:101A5E00AF6E51C043F052C044F053C045F054C075
:101A6E0046F0EEEC1AF044C043F0446A4350B06EB8
:101A7E0012003650800B3F6E36503624416E35AE16
:101A8E004BEF0DF04DEF0DF04EEF0DF0418041504C
:101A9E00D8B454EF0DF056EF0DF06BEF0DF041286A
:101AAE00D8A45CEF0DF05EEF0DF066EF0DF0000EBA
:101ABE00336E000E346E000E356E000E366E358EA1
:101ACE00000E366E73EF0DF0000E336E000E346E98
:101ADE00000E356E000E366E3A50800B406E3F5043
:101AEE004018D8B47DEF0DF07FEF0DF080EF0DF0C4
:101AFE003F8C3A503A24406E39AE88EF0DF08AEFA3
:101B0E000DF08BEF0DF040804050D8B491EF0DF0FA
:101B1E0093EF0DF0A8EF0DF04028D8A499EF0DF03B
:101B2E009BEF0DF0A3EF0DF0000E376E000E386E2A
:101B3E00000E396E000E3A6E398E000E3A6EB0EF10
:101B4E000DF0000E376E000E386E000E396E000E60
:101B5E003A6E4150405CD8B0B7EF0DF0B9EF0DF0D2
:101B6E00E0EF0DF03FACBEEF0DF0C0EF0DF0C2EFA9
:101B7E000DF0800E3F1A41C042F040C041F042C00D
:101B8E0040F033C042F037C033F042C037F034C0BB
:101B9E0042F038C034F042C038F035C042F039C09F
:101BAE0035F042C039F036C042F03AC036F042C08D
:101BBE003AF0000E426E415040C03BF03C6A3B5E34
:101BCE00000E3C5A3CBEF5EF0DF03C5009E11A0EEA
:101BDE003B5CD8A0F5EF0DF0F7EF0DF02EEF0EF009
:101BEE003350341035103610D8A400EF0EF003EF3A
:101BFE000EF0010E04EF0EF0000E426E000E336E6C
:101C0E00000E346E000E356E000E366E40C041F082
:101C1E0037EF0EF042A016EF0EF018EF0EF01EEF9B
:101C2E000EF0D89042300109426E20EF0EF0D8909F
:101C3E00423233A025EF0EF027EF0EF028EF0EF014
:101C4E00428E36343632353234323332412A4050B7
:101C5E00415CD8A035EF0EF037EF0EF011EF0EF01D
:101C6E003FBC3CEF0EF03EEF0EF07EEF0EF041501B
:101C7E00D8A444EF0EF046EF0EF050EF0EF0000E2B
:101C8E00336E000E346E000E356E000E366E9FEF04
:101C9E000FF03750332638503422395035223A500F
:101CAE00362236A05DEF0EF05FEF0EF00BEF0FF069
:101CBE0042A064EF0EF066EF0EF06CEF0EF0D890CF
:101CCE0042300109426E6EEF0EF0D890423233A0D0
:101CDE0073EF0EF075EF0EF076EF0EF0428E363497
:101CEE003632353234323332412A0BEF0FF0375061
:101CFE00335C38503458395035583650800A3B6E64
:101D0E003A50800A3B58D8B08FEF0EF091EF0EF09C
:101D1E00BCEF0EF03350375C3B6E345038583C6E8F
:101D2E00355039583D6E36503A583E6EFF0E3B24B4
:101D3E00336EFF0E3C20346EFF0E3D20356EFF0ECF
:101D4E003E20366E800E3F1A426C4250D8A4B2EF3F
:101D5E000EF0B4EF0EF0C4EF0EF0010E3326000EAF
:101D6E00342235223622C4EF0EF03750335E38500F
:101D7E00345A3950355A3A50365A33503410351089
:101D8E003610D8A4CDEF0EF0CFEF0EF004EF0FF01B
:101D9E004250D8A4D5EF0EF0D7EF0EF004EF0FF0AF
:101DAE00000E336E000E346E000E356E000E366E63
:101DBE009FEF0FF0D890333634363536363642AE86
:101DCE00EBEF0EF0EDEF0EF0EEEF0EF0338042A0E3
:101DDE00F3EF0EF0F5EF0EF0F9EF0EF0D88042367D
:101DEE00FBEF0EF0D89042364150D8B401EF0FF011
:101DFE0003EF0FF004EF0FF0410635AE09EF0FF0D1
:101E0E000BEF0FF0E1EF0EF0000E406E42AE12EF50
:101E1E000FF014EF0FF02CEF0FF042C03BF07F0EDF
:101E2E003B16D8B41DEF0FF01FEF0FF023EF0FF09E
:101E3E00010E406E2CEF0FF033A028EF0FF02AEFBB
:101E4E000FF02CEF0FF01FEF0FF04050D8B432EF21
:101E5E000FF034EF0FF05FEF0FF0010E3326000E90
:101E6E0034223522362236A03FEF0FF041EF0FF02D
:101E7E005FEF0FF033C03BF034C03CF035C03DF0A7
:101E8E0036C03EF03E343E323D323C323B323BC0F9
:101E9E0033F03CC034F03DC035F03EC036F0412842
:101EAE00D8B45CEF0FF05EEF0FF05FEF0FF0412A4A
:101EBE004128D8B465EF0FF067EF0FF06FEF0FF01A
:101ECE004150D8A46DEF0FF06FEF0FF081EF0FF0D0
:101EDE00000E336E000E346E000E356E000E366E32
:101EEE004150D8A47DEF0FF07FEF0FF081EF0FF090
:101EFE00000E3F6E41A086EF0FF088EF0FF08BEFD4
:101F0E000FF0358E8CEF0FF0359ED8904130366E37
:101F1E003FAE94EF0FF096EF0FF097EF0FF0368E77
:101F2E0033C033F034C034F035C035F036C036F03F
:101F3E0012001D50800B266E1D501D242C6E1CAEE3
:101F4E00ABEF0FF0ADEF0FF0AEEF0FF02C802C508B
:101F5E00D8B4B4EF0FF0B6EF0FF0C9EF0FF02C2896
:101F6E00D8A4BCEF0FF0BEEF0FF0C6EF0FF0000ECF
:101F7E001A6E000E1B6E000E1C6E000E1D6E1C8E59
:101F8E00D1EF0FF0000E1A6E000E1B6E000E1C6EBF
:101F9E00000E1D6E2150800B261A215021242B6E0F
:101FAE0020AEDCEF0FF0DEEF0FF0DFEF0FF02B8047
:101FBE002B50D8B4E5EF0FF0E7EF0FF0FAEF0FF07C
:101FCE002B28D8A4EDEF0FF0EFEF0FF0F7EF0FF097
:101FDE00000E1E6E000E1F6E000E206E000E216E85
:101FEE00208E02EF10F0000E1E6E000E1F6E000E01
:101FFE00206E000E216E2B50D8B408EF10F00AEFB1
:10200E0010F012EF10F02C50D8A410EF10F012EFC9
:10201E0010F01CEF10F0000E1A6E000E1B6E000E6C
:10202E001C6E000E1D6EB4EF11F020501A02F3CF8D
:10203E0031F0F4CF32F03150276E286A296A2A6ABD
:10204E0032502D6E2E6A2F6A306A1F501B02F3CF4C
:10205E0031F0F4CF32F031502726000E28222922FB
:10206E002A2232502D26000E2E222F2230221E50D2
:10207E001C02F3CF31F0F4CF32F031502726000E90
:10208E00282229222A2232502D26000E2E222F22DD
:10209E00302229C02AF028C029F027C028F0276A4C
:1020AE001E501B02F3CF31F0F4CF32F03150272601
:1020BE0032502822000E2922000E2A221F501A0208
:1020CE00F3CF31F0F4CF32F03150272632502822A0
:1020DE00000E2922000E2A2229C02AF028C029F03B
:1020EE0027C028F0276A1E501A02F3CF31F0F4CF22
:1020FE0032F03150272632502822000E2922000EAF
:10210E002A2220501B02F3CF31F0F4CF32F031509F
:10211E002D2632502E22000E2F22000E30221F505E
:10212E001C02F3CF31F0F4CF32F031502D26325065
:10213E002E22000E2F22000E302220501C02F3CF32
:10214E0031F0F4CF32F03150226E3250236E246AC9
:10215E00256A24C025F023C024F022C023F0226A71
:10216E0022502D2623502E2224502F22255030224D
:10217E0027C022F028C023F029C024F02AC025F061
:10218E00190ECFEF10F0D89025322432233222329E
:10219E00E82ECAEF10F022502D2623502E22245066
:1021AE002F222550302229C02AF028C029F027C01E
:1021BE0028F0276A2B502CC022F0236A2226000E0C
:1021CE002322820E2224316EFF0E2320326E05EF63
:1021DE0011F0D8902D362E362F3630362AAEFAEF35
:1021EE0010F0FCEF10F0FDEF10F02D80D890273698
:1021FE00283629362A363106D8A032062FAE0AEFF7
:10220E0011F00CEF11F0F0EF10F0000E2B6E2AAE65
:10221E0013EF11F015EF11F039EF11F0FF0E271437
:10222E00226EFF0E2814236EFF0E2914246E7F0ECD
:10223E002A14256E2250231024102510D8B42AEF0C
:10224E0011F02CEF11F030EF11F0010E2B6E39EF73
:10225E0011F02DA035EF11F037EF11F039EF11F02D
:10226E002CEF11F02B50D8B43FEF11F041EF11F0DD
:10227E0065EF11F0010E2D26000E2E222F22302298
:10228E0030A04CEF11F04EEF11F065EF11F02DC0B4
:10229E0022F02EC023F02FC024F030C025F02534BC
:1022AE00253224322332223222C02DF023C02EF0CA
:1022BE0024C02FF025C030F0314A322A32BE70EFE2
:1022CE0011F0325008E13128D8A070EF11F072EF02
:1022DE0011F07CEF11F0000E2D6E000E2E6E800EA2
:1022EE002F6E7F0E306EAAEF11F032BE89EF11F015
:1022FE00325006E13104D8B087EF11F089EF11F0BA
:10230E0095EF11F0000E2D6E000E2E6E000E2F6E3C
:10231E00000E306E000E266EAAEF11F031C02CF0BA
:10232E00FF0E2D16FF0E2E167F0E2F16000E3016D8
:10233E002CA0A4EF11F0A6EF11F0A7EF11F02F8E45
:10234E00D8902C30306E265030122DC01AF02EC080
:10235E001BF02FC01CF030C01DF012000600FACF8B
:10236E0008F0FBCF09F0D9CF0AF0DACF0BF0F2A8C4
:10237E00C3EF11F0C5EF11F0CEEF11F0F2A2CAEFDC
:10238E0011F0CCEF11F0CEEF11F028EC25F0F0A605
:10239E00D3EF11F0D5EF11F0DEEF11F0F0A0DAEF80
:1023AE0011F0DCEF11F0DEEF11F026EC25F0F0A8C5
:1023BE00E3EF11F0E5EF11F0EEEF11F0F0A2EAEF1E
:1023CE0011F0ECEF11F0EEEF11F024EC25F0F2A687
:1023DE00F3EF11F0F5EF11F010EF12F0F2A0FAEFAB
:1023EE0011F0FCEF11F010EF12F081A801EF12F0D6
:1023FE0003EF12F010EF12F07004D8A409EF12F0F0
:10240E000BEF12F010EF12F0000E706E000EECECEF
:10241E0024F0F2A615EF12F017EF12F032EF12F0D1
:10242E00F2A01CEF12F01EEF12F032EF12F081B894
:10243E0023EF12F025EF12F032EF12F07050D8A405
:10244E002BEF12F02DEF12F032EF12F0010E706E34
:10245E00010EECEC24F0F2A637EF12F039EF12F089
:10246E0054EF12F0F2A03EEF12F040EF12F054EFE4
:10247E0012F081AA45EF12F047EF12F054EF12F06E
:10248E006F04D8A44DEF12F04FEF12F054EF12F08C
:10249E00000E6F6E000EDFEC24F0F2A659EF12F074
:1024AE005BEF12F076EF12F0F2A060EF12F062EF37
:1024BE0012F076EF12F081BA67EF12F069EF12F0B8
:1024CE0076EF12F06F50D8A46FEF12F071EF12F09A
:1024DE0076EF12F0010E6F6E010EDFEC24F0F2A615
:1024EE007BEF12F07DEF12F098EF12F0F2A082EF78
:1024FE0012F084EF12F098EF12F081AC89EF12F027
:10250E008BEF12F098EF12F06E04D8A491EF12F048
:10251E0093EF12F098EF12F0000E6E6E000ED2ECEA
:10252E0024F0F2A69DEF12F09FEF12F0BAEF12F028
:10253E00F2A0A4EF12F0A6EF12F0BAEF12F081BCE7
:10254E00ABEF12F0ADEF12F0BAEF12F06E50D8A45E
:10255E00B3EF12F0B5EF12F0BAEF12F0010E6E6E8D
:10256E00010ED2EC24F0F2A6BFEF12F0C1EF12F082
:10257E00DCEF12F0F2A0C6EF12F0C8EF12F0DCEFB3
:10258E0012F081AECDEF12F0CFEF12F0DCEF12F0C1
:10259E006D04D8A4D5EF12F0D7EF12F0DCEF12F0E5
:1025AE00000E6D6E000EC5EC24F0F2A6E1EF12F0F7
:1025BE00E3EF12F0FEEF12F0F2A0E8EF12F0EAEF06
:1025CE0012F0FEEF12F081BEEFEF12F0F1EF12F00B
:1025DE00FEEF12F06D50D8A4F7EF12F0F9EF12F0F3
:1025EE00FEEF12F0010E6D6E010EC5EC24F09DACE7
:1025FE0003EF13F005EF13F00EEF13F09EAC0AEF9E
:10260E0013F00CEF13F00EEF13F02EEC25F0F2AAF0
:10261E0013EF13F015EF13F01EEF13F0F2A41AEFF1
:10262E0013F01CEF13F01EEF13F00FEC25F09DA02E
:10263E0023EF13F025EF13F02EEF13F09EA02AEFE9
:10264E0013F02CEF13F02EEF13F008EC25F09DA2F3
:10265E0033EF13F035EF13F03EEF13F09EA23AEF87
:10266E0013F03CEF13F03EEF13F016EC25F0A0A2A2
:10267E0043EF13F045EF13F04EEF13F0A1A24AEF24
:10268E0013F04CEF13F04EEF13F001EC25F09DA478
:10269E0053EF13F055EF13F05EEF13F09EA45AEFC5
:1026AE0013F05CEF13F05EEF13F076EC24F0A0A0C5
:1026BE0063EF13F065EF13F06EEF13F0A1A06AEF66
:1026CE0013F06CEF13F06EEF13F02CEC25F09DA8C9
:1026DE0073EF13F075EF13F07EEF13F09EA87AEF01
:1026EE0013F07CEF13F07EEF13F02AEC25F09DAA89
:1026FE0083EF13F085EF13F08EEF13F09EAA8AEF9F
:10270E0013F08CEF13F08EEF13F031EC25F09DA645
:10271E0093EF13F095EF13F09EEF13F09EA69AEF42
:10272E0013F09CEF13F09EEF13F05EEC24F0A0A6D6
:10273E00A3EF13F0A5EF13F0AEEF13F0A1A6AAEFDF
:10274E0013F0ACEF13F0AEEF13F022EC25F00BC04C
:10275E00DAFF0AC0D9FF09C0FBFF08C0FAFF739267
:10276E0011001D50800B2A6E1D501D24316E1CAEA3
:10277E00C3EF13F0C5EF13F0C6EF13F031803150F5
:10278E00D8B4CCEF13F0CEEF13F0E3EF13F0312803
:10279E00D8A4D4EF13F0D6EF13F0DEEF13F0000E43
:1027AE001A6E000E1B6E000E1C6E000E1D6E1C8E21
:1027BE00000E1D6EEBEF13F0000E1A6E000E1B6E68
:1027CE00000E1C6E000E1D6E2150800B2A1A215019
:1027DE002124326E20AEF6EF13F0F8EF13F0F9EF7E
:1027EE0013F032803250D8B4FFEF13F001EF14F033
:1027FE0016EF14F03228D8A407EF14F009EF14F0F6
:10280E0011EF14F0000E1E6E000E1F6E000E206EE5
:10281E00000E216E208E000E216E1EEF14F0000EA3
:10282E001E6E000E1F6E000E206E000E216E1E50CC
:10283E001F1020102110D8A427EF14F029EF14F048
:10284E0041EF14F0000E1A6E000E1B6E000E1C6E81
:10285E00000E1D6E800E1C127F0E1D122A501D12B0
:10286E001AC01AF01BC01BF01CC01CF01DC01DF0BE
:10287E0084EF15F03150D8A447EF14F049EF14F05F
:10288E0053EF14F0000E1A6E000E1B6E000E1C6E2F
:10289E00000E1D6E84EF15F0325031C022F0236A07
:1028AE00225E000E235A7F0E22242B6E000E232052
:1028BE002C6E1AC026F01BC027F01CC028F01DC0BD
:1028CE0029F0000E1A6E000E1B6E000E1C6E000E0E
:1028DE001D6E000E2D6E000E2E6E000E2F6E000E53
:1028EE00306E000E326EB4EF14F03250D8B482EF68
:1028FE0014F084EF14F09BEF14F0D89026362736A0
:10290E0028362936D8901A361B361C361D3630AE70
:10291E0093EF14F095EF14F096EF14F01A80D89010
:10292E002D362E362F3630361E50265C1F50275829
:10293E002050285821502958D8A0A8EF14F0AAEFFB
:10294E0014F0B3EF14F0308C1E50265E1F50275A31
:10295E002050285A2150295A322A190E3264BAEFC1
:10296E0014F0BCEF14F07CEF14F026502710281052
:10297E002910D8B4C5EF14F0C7EF14F0DFEF14F040
:10298E002D80DFEF14F0D8901A361B361C361D360C
:10299E0030AED4EF14F0D6EF14F0D7EF14F01A8057
:1029AE00D8902D362E362F3630362B06D8A02C0644
:1029BE001CAEE4EF14F0E6EF14F0CAEF14F0000EC4
:1029CE00326E30AEEDEF14F0EFEF14F013EF15F0B2
:1029DE00FF0E2D14226EFF0E2E14236EFF0E2F14DB
:1029EE00246E7F0E3014256E2250231024102510D5
:1029FE00D8B404EF15F006EF15F00AEF15F0010E3E
:102A0E00326E13EF15F01AA00FEF15F011EF15F04F
:102A1E0013EF15F006EF15F03250D8B419EF15F08C
:102A2E001BEF15F03FEF15F0010E1A26000E1B22BC
:102A3E001C221D221DA026EF15F028EF15F03FEFEA
:102A4E0015F01AC022F01BC023F01CC024F01DC0CC
:102A5E0025F02534253224322332223222C01AF0B8
:102A6E0023C01BF024C01CF025C01DF02B4A2C2ABD
:102A7E002CBE4AEF15F02C5008E12B28D8A04AEFB7
:102A8E0015F04CEF15F057EF15F0000E2C6E2B686D
:102A9E00000E1A6E000E1B6E000E1C6E000E1D6ECA
:102AAE002CBE64EF15F02C5006E12B04D8B062EF6B
:102ABE0015F064EF15F072EF15F0000E2C6E000E8F
:102ACE002B6E000E1A6E000E1B6E000E1C6E000E8C
:102ADE001D6E000E2A6E2BC031F031A079EF15F06D
:102AEE007BEF15F07EEF15F01C8E7FEF15F01C9E20
:102AFE00D89031301D6E35EF14F01200146E145054
:102B0E00D8B48CEF15F08EEF15F0B0EF15F00FBEB8
:102B1E0095EF15F093EF15F0B0EF15F00CC010F027
:102B2E000DC011F00EC012F00FC013F0101E111ECA
:102B3E00121E131E102A000E11221222132210C072
:102B4E0016F011C017F012C018F013C019F0B8EF3C
:102B5E0015F00CC016F00DC017F00EC018F00FC017
:102B6E0019F00C500D100E100F10D8A4C1EF15F067
:102B7E00C3EF15F0CDEF15F0000E0C6E000E0D6EBE
:102B8E00000E0E6E000E0F6E5EEF16F0960E156EA8
:102B9E00D7EF15F0152AD89019321832173216328F
:102BAE00000E1614106E000E1714116E000E18146F
:102BBE00126EFE0E1914136E105011101210131007
:102BCE00D8A4ECEF15F0EEEF15F0D1EF15F0FCEF09
:102BDE0015F0152A010E1626000E1722182219229C
:102BEE00D8901932183217321632000E1614106E93
:102BFE00000E1714116E000E1814126EFF0E19141B
:102C0E00136E1050111012101310D8A411EF16F0ED
:102C1E0013EF16F0F0EF15F01BEF16F01506D89027
:102C2E00163617361836193618BE20EF16F022EF64
:102C3E0016F02AEF16F0020E156028EF16F02AEFA6
:102C4E0016F015EF16F015B02FEF16F031EF16F057
:102C5E0032EF16F0189ED890153215C010F0116A8A
:102C6E00126A136A10C013F0126A116A106A1050B9
:102C7E001612115017121250181213501912145016
:102C8E00D8B44CEF16F04EEF16F056EF16F00FBE0E
:102C9E0055EF16F053EF16F056EF16F0198E16C0CC
:102CAE000CF017C00DF018C00EF019C00FF0120086
:102CBE002ABE64EF16F067EF16F0010E68EF16F0FD
:102CCE00000E316E3150D8B46FEF16F071EF16F072
:102CDE0075EF16F0296C2A1ED8B02A2A000189BF7A
:102CEE007DEF16F07BEF16F083EF16F0000E2E6ED2
:102CFE00010E2D6E87EF16F088C02DF089C02EF0D4
:102D0E0086C02FF087C030F03150D8B491EF16F056
:102D1E0093EF16F0AAEF16F02F06D8A0300631501A
:102D2E00D8A49CEF16F09EEF16F0A4EF16F0000E4E
:102D3E002C6E2B0E2B6EA8EF16F0000E2C6E2D0E99
:102D4E002B6E2BC031F0000E336E1F0E326E000E46
:102D5E000101416FE3EF16F03206D8A03306220EC2
:102D6E003224D96E010E3320DA6E29C00CF02AC03F
:102D7E000DF0000E0F6E0A0E0E6E01EC1FF00CC061
:102D8E0012F00DC013F073EC23F01250300FDF6E03
:102D9E002D06D8A02E062F06D8A0300629C00CF07E
:102DAE002AC00DF0000E0F6E0A0E0E6E2AEC1DF0EC
:102DBE000CC029F00DC02AF033BEEEEF16F03350E2
:102DCE0008E13204D8A0EEEF16F0F0EF16F006EFA1
:102DDE0017F029502A10D8A4F7EF16F0F9EF16F0D5
:102DEE00B3EF16F02EBE06EF17F02E5006E12D04AF
:102DFE00D8B004EF17F006EF17F0B3EF16F031501E
:102E0E00D8B40CEF17F00EEF17F019EF17F03206DB
:102E1E00D8A03306220E3224D96E010E3320DA6E7C
:102E2E0031C0DFFF27C01CF028C01DF0220E322457
:102E3E001E6E010E33201F6E2FC020F030C021F009
:102E4E000FEC21F012000CC016F00DC017F0105050
:102E5E001110D8A435EF17F037EF17F039EF17F040
:102E6E00E4EF17F016C0D9FF17C0DAFF0EC0DFFF70
:102E7E0010501624126E11501720136EFF0E1224CE
:102E8E00D96EFF0E1320DA6E0EC0DFFF115007E170
:102E9E00030E105CD8B056EF17F058EF17F05AEF3C
:102EAE0017F0E4EF17F020EE01F01650D926175068
:102EBE00DA220EC0DFFF20EE02F01650D926175090
:102ECE00DA220EC0DFFF10501624126E115017209A
:102EDE00136EFE0E1224D96EFF0E1320DA6E0EC084
:102EEE00DFFF10501624126E11501720136EFD0EB8
:102EFE001224D96EFF0E1320DA6E0EC0DFFF1150B2
:102F0E0007E1070E105CD8B08FEF17F091EF17F0B6
:102F1E0093EF17F0E4EF17F020EE03F01650D926DA
:102F2E001750DA220EC0DFFF10501624126E115009
:102F3E001720136EFC0E1224D96EFF0E1320DA6EBC
:102F4E000EC0DFFF115007E1090E105CD8B0B2EFD2
:102F5E0017F0B4EF17F0B6EF17F0E4EF17F016C056
:102F6E0012F017C013F0121E131E124A132A030E6C
:102F7E001214146E156A145016261550172214507A
:102F8E00105E1550115AFC0E1016FF0E1116DBEFC7
:102F9E0017F016C0D9FF17C0DAFF0EC0DFFF1006FC
:102FAE00D8A01106164A172A10501110D8A4E2EF15
:102FBE0017F0E4EF17F0D0EF17F012005150521047
:102FCE00D8A4ECEF17F0EEEF17F0F0EF17F090EF4C
:102FDE0018F0C69A20EE0AF05150D9265250DA2235
:102FEE00DFA0FCEF17F0FEEF17F006EF18F051C060
:102FFE004DF052C04EF059EC1FF049EF18F020EE94
:10300E000AF05150D9265250DA22DFB011EF18F0E3
:10301E0013EF18F049EF18F020EE0AF05150D926B0
:10302E005250DA22DFA61EEF18F020EF18F023EF31
:10303E0018F0C58E31EF18F020EE0AF05150D92657
:10304E005250DA22DFB62EEF18F030EF18F031EFD3
:10305E0018F0C59EC69EC69CC68820EE09F051503B
:10306E00D9265250DA22DF50C86E20EE08F05150A9
:10307E00D9265250DA22DF50536EC6505318F00B39
:10308E005318C66E1DEC25F020EE0AF05150D926CD
:10309E005250DA22DFB256EF18F058EF18F05BEF0D
:1030AE0018F0C79E69EF18F020EE0AF05150D9269D
:1030BE005250DA22DFA266EF18F068EF18F069EFCF
:1030CE0018F0C78E20EE0AF05150D9265250DA224F
:1030DE00DFA474EF18F076EF18F079EF18F0C78CC4
:1030EE0087EF18F020EE0AF05150D9265250DA220E
:1030FE00DFB484EF18F086EF18F087EF18F0C79C56
:10310E0051C00CF052C00DF0C7EC22F0C68AEEEFA3
:10311E0017F0010E12000C500D10D8B499EF18F0E4
:10312E009BEF18F0ACEF18F00CC0D9FF0DC0DAFF12
:10313E00DF30E832E832070B0E6E070E0E64AAEF90
:10314E0018F0ACEF18F00DEF19F02EEF19F00CC0CF
:10315E00D9FF0DC0DAFFDF30E832E832070B0E6E12
:10316E00010E0F6E0E2ABEEF18F0D8900F360E2EEF
:10317E00BCEF18F00F50FF0A106E0CC0D9FF0DC037
:10318E00DAFFDF50070B116E1150020D7A0EF32489
:10319E00D96E010EF420DA6EDECF12F0DDCF13F011
:1031AE0012C0D9FF13C0DAFF1050DF162EEF19F040
:1031BE000CC0D9FF0DC0DAFFDF30E832E832070B62
:1031CE000E6E010E0F6E0E2AEFEF18F0D8900F361E
:1031DE000E2EEDEF18F00CC0D9FF0DC0DAFFDF5048
:1031EE00070B106E1050020D7A0EF324D96E010EDD
:1031FE00F420DA6EDECF11F0DDCF12F011C0D9FF60
:10320E0012C0DAFF0F50DF122EEF19F00CC0D9FFEB
:10321E000DC0DAFFDFBC16EF19F019EF19F0010E31
:10322E001AEF19F0000E0E6E0F6A0F50000AD8B486
:10323E0023EF19F0ACEF18F00E50000AD8B4AEEF31
:10324E0018F0010AD8B4DFEF18F0ACEF18F0010E49
:10325E00120036C0D9FF37C0DAFFDECFF6FFDDCF62
:10326E00F7FFF86A0800F550250AD8A441EF19F0C7
:10327E0043EF19F0B0EF19F036C0D9FF37C0DAFFBF
:10328E00DE2A000EDD22000E0001876F000E866F13
:10329E0086C0C4F08869896936C0D9FF37C0DAFFA5
:1032AE00DECF40F0DDCF41F040C0F6FF41C0F7FF6A
:1032BE00F86A0800F550640AD8B468EF19F06AEF9E
:1032CE0019F079EF19F040C0F6FF41C0F7FFF86A28
:1032DE000800F550690AD8A477EF19F079EF19F0C4
:1032EE00A7EF19F038C0D9FF39C0DAFFDFCF3AF0B7
:1032FE00020EDE26DFCF3BF0000EDD223AC0D9FFF4
:10330E003BC0DAFFDECF3CF0DDCF3DF0010E4024B6
:10331E003A6E000E41203B6E36C0D9FF37C0DAFF41
:10332E003AC0DEFF3BC0DDFF34C027F035C028F0C9
:10333E003CC029F03DC02AF05FEC16F0C5EF19F045
:10334E0036C0D9FF37C0DAFFDE2A000EDD22C5EF08
:10335E0019F036C0D9FF37C0DAFFDECFF6FFDDCF6A
:10336E00F7FFF86A0800F5500C6E0D6A34C00EF0C7
:10337E0035C00FF0C5EC1CF0A7EF19F01200000ECF
:10338E00256E21502210D8A4CFEF19F0D1EF19F0ED
:10339E00D5EF19F0010E266E5AEF1AF021C015F076
:1033AE0022C016F0F9EC21F0266E010E2124156EC6
:1033BE00000E2220166EF9EC21F0266E000E256E00
:1033CE0025502124236E000E2220246E020E23246B
:1033DE00156E000E2420166EF9EC21F0252A070E2C
:1033EE002564FCEF19F0FEEF19F0E7EF19F01A0E55
:1033FE00236EF80EE82EFED7232EFCD700D021C068
:10340E0018F022C019F0380E1A6E3DEC20F0070E9F
:10341E00236E7D0EE82EFED7232EFCD700F021C0A2
:10342E0018F022C019F0380E1A6E3DEC20F0320E54
:10343E00E82EFED721C018F022C019F0380E1A6EF1
:10344E003DEC20F021C018F022C019F0010E1A6ECA
:10345E003DEC20F021C018F022C019F0020E1A6EB9
:10346E003DEC20F021C018F022C019F0060E1A6EA5
:10347E003DEC20F021C018F022C019F00C0E1A6E8F
:10348E003DEC20F021C018F022C019F0380E1A6E53
:10349E003DEC20F021C018F022C019F0800E1A6EFB
:1034AE003DEC20F0266E265012000C500D10D8B4B4
:1034BE0063EF1AF065EF1AF076EF1AF00CC0D9FF31
:1034CE000DC0DAFFDF30E832E832070B0F6E070E61
:1034DE000F6474EF1AF076EF1AF0D7EF1AF0ECEFE4
:1034EE001AF00CC0D9FF0DC0DAFFDF30E832E83237
:1034FE00070B0F6E010E106E0F2A88EF1AF0D89080
:10350E0010360F2E86EF1AF00CC0D9FF0DC0DAFF61
:10351E00DF50070B116E1150020D700EF324D96E91
:10352E00010EF420DA6EDECF12F0DDCF13F012C0F2
:10353E00D9FF13C0DAFF1050DF12ECEF1AF00CC0F7
:10354E00D9FF0DC0DAFFDF30E832E832070B0F6E1D
:10355E00010E106E0F2AB6EF1AF0D89010360F2EFD
:10356E00B4EF1AF01050FF0A116E0CC0D9FF0DC047
:10357E00DAFFDF50070B126E1250020D700EF3249D
:10358E00D96E010EF420DA6EDECF13F0DDCF14F01B
:10359E0013C0D9FF14C0DAFF1150DF16ECEF1AF08A
:1035AE000E500F6E106A1050000AD8B4E1EF1AF0E8
:1035BE0076EF1AF00F50000AD8B4A6EF1AF0010AEF
:1035CE00D8B478EF1AF076EF1AF0010E12004534E7
:1035DE0046344C6E4C50D8A4F7EF1AF0F9EF1AF0AF
:1035EE0003EF1BF0000E436E000E446E000E456E90
:1035FE00000E466E70EF1BF043C047F044C048F01B
:10360E0045C049F046C04AF0200E13EF1BF0D8908B
:10361E004A32493248324732E82E0EEF1BF04750FD
:10362E004B6E458EFF0E4316FF0E4416FF0E4516CB
:10363E00000E4616960E4C5E4CBE2AEF1BF028EF7F
:10364E001BF040EF1BF04C50800A970FD8B032EFB2
:10365E001BF034EF1BF036EF1BF0F9EF1AF0D89099
:10366E0046324532443243324C3E36EF1BF058EF71
:10367E001BF01F0E4C6446EF1BF048EF1BF050EF93
:10368E001BF0F9EF1AF0D8904336443645364636DD
:10369E004C064C50D8A456EF1BF058EF1BF04AEFD7
:1036AE001BF04B50D8B45EEF1BF060EF1BF068EFD1
:1036BE001BF0461E451E441E436C000E442245223E
:1036CE00462243C043F044C044F045C045F046C0D6
:1036DE0046F0120020EE05F00C50D9260D50DA22DD
:1036EE00DFAA7CEF1BF07EEF1BF0E0EF1BF0AB8848
:1036FE0020EE0AF00C50D9260D50DA22DECF8EF0D5
:10370E00DDCF8FF020EE0CF00C50D9260D50DA22C2
:10371E00DECF8CF0DDCF8DF020EE0EF00C50D926E2
:10372E000D50DA22DECF8AF0DDCF8BF020EE05F0E1
:10373E000C50D9260D50DA22DFACA8EF1BF0AAEF01
:10374E001BF0B0EF1BF09D8A9D8AF28EF28CBEEFBD
:10375E001BF020EE05F00C50D9260D50DA22DFBCFE
:10376E00BBEF1BF0BDEF1BF0BEEF1BF09D9A20EEE2
:10377E0005F00C50D9260D50DA22DFAEC9EF1BF042
:10378E00CBEF1BF0CEEF1BF0AB8CEEEF1BF020EE71
:10379E0005F00C50D9260D50DA22DFBED9EF1BF002
:1037AE00DBEF1BF0DEEF1BF0AB9CEEEF1BF0EEEF52
:1037BE001BF020EE05F00C50D9260D50DA22DFBAA0
:1037CE00EBEF1BF0EDEF1BF0EEEF1BF0AB981200E2
:1037DE000E6E19EF1CF092805AEF1CF092825AEF87
:1037EE001CF092845AEF1CF092865AEF1CF0928ACB
:1037FE005AEF1CF096805AEF1CF096825AEF1CF08E
:10380E0096845AEF1CF093845AEF1CF093865AEF6D
:10381E001CF093825AEF1CF093885AEF1CF09380A1
:10382E005AEF1CF00E500C6E0D6A0D50000AD8B4F3
:10383E0023EF1CF05AEF1CF00C50000AD8B4F2EF34
:10384E001BF0010AD8B4F5EF1BF0030AD8B4F8EF59
:10385E001BF0010AD8B4FBEF1BF0070AD8B4FEEF39
:10386E001BF0010AD8B401EF1CF0030AD8B404EF20
:10387E001CF0010AD8B407EF1CF00F0AD8B40AEFF7
:10388E001CF0010AD8B40DEF1CF0030AD8B410EFE7
:10389E001CF0010AD8B413EF1CF0070AD8B416EFC7
:1038AE001CF05AEF1CF0120020EE03F00C50D9263B
:1038BE000D50DA22DFAA66EF1CF068EF1CF0B6EFAF
:1038CE001CF0AC8A20EE08F00C50D9260D50DA22EE
:1038DE00DECF90F0DDCF91F020EE03F00C50D92624
:1038EE000D50DA22DFAC7EEF1CF080EF1CF086EF7D
:1038FE001CF09D889D88F28EF28C94EF1CF020EEC9
:10390E0003F00C50D9260D50DA22DFBC91EF1CF0DB
:10391E0093EF1CF094EF1CF09D9820EE03F00C50EA
:10392E00D9260D50DA22DFAE9FEF1CF0A1EF1CF06E
:10393E00A4EF1CF0AC8CC4EF1CF020EE03F00C5086
:10394E00D9260D50DA22DFBEAFEF1CF0B1EF1CF01E
:10395E00B4EF1CF0AC9CC4EF1CF0C4EF1CF020EED6
:10396E0003F00C50D9260D50DA22DFBAC1EF1CF04D
:10397E00C3EF1CF0C4EF1CF0AC9A12000E500F10E7
:10398E00D8B4CCEF1CF0CEEF1CF0D7EF1CF00E50DD
:10399E000F10D8A4D5EF1CF0D7EF1CF0DCEF1CF005
:1039AE000C5030EC25F029EF1DF020EE0AF00E50F1
:1039BE00D9260F50DA22DE50DE10D8B4E9EF1CF013
:1039CE00EBEF1CF006EF1DF020EE0AF00E50D9269C
:1039DE000F50DA2210EE03F00E50E1260F50E222C5
:1039EE00DE50E65CE650800A146EDE50800A1458F3
:1039FE00D8B004EF1DF006EF1DF029EF1DF020EEFC
:103A0E0003F00E50D9260F50DA22DECF10F0DDCFA4
:103A1E0011F00EC0D9FF0FC0DAFFDECF12F0DDCFEE
:103A2E0013F010501224D96E11501320DA6E0CC000
:103A3E00DFFF20EE03F00E50D9260F50DA22DE2AD9
:103A4E00000EDD221200000E116E0FBE33EF1DF0C0
:103A5E0031EF1DF039EF1DF00E6C0F1ED8B00F2A8E
:103A6E00010E116E0DBE40EF1DF03EEF1DF046EF44
:103A7E001DF00C6C0D1ED8B00D2A010E111A000E81
:103A8E00136E000E126E0E500F10D8B451EF1DF0C3
:103A9E0053EF1DF07BEF1DF0010E106E5BEF1DF06E
:103AAE00D8900E360F36102A0FAE60EF1DF062EF73
:103ABE001DF057EF1DF0D890123613360E500C5CD9
:103ACE000F500D58D8A06EEF1DF070EF1DF075EF72
:103ADE001DF00E500C5E0F500D5A1280D8900F3202
:103AEE000E32102E62EF1DF01150D8B481EF1DF082
:103AFE0083EF1DF087EF1DF0126C131ED8B0132A42
:103B0E0012C00CF013C00DF012000C500D10D8B4F2
:103B1E0093EF1DF095EF1DF09EEF1DF00E500F1060
:103B2E00D8A49CEF1DF09EEF1DF0A0EF1DF0EAEF64
:103B3E001DF020EE06F00C50D9260D50DA22DFA231
:103B4E00ABEF1DF0ADEF1DF0C1EF1DF0C350C4CFB4
:103B5E0010F0116A10C011F0106A1026000E11221A
:103B6E000EC0D9FF0FC0DAFF10C0DEFF11C0DDFF9F
:103B7E009EEF1DF020EE06F00C50D9260D50DA22E5
:103B8E00DFB2CCEF1DF0CEEF1DF0ADEF1DF0C35048
:103B9E00C4CF10F0116A10C011F0106A1026000E7A
:103BAE001122060E126E113411321032122EDAEF6D
:103BBE001DF00EC0D9FF0FC0DAFF10C0DEFF11C01E
:103BCE00DDFF9EEF1DF0010E1200010E01019B6F35
:103BDE0021EE95F0050EDE6AE806FDE2000E9C6F02
:103BEE0093519411D8A4FEEF1DF000EF1EF004EFD8
:103BFE001EF0010E9B6F48EF1EF093C10CF094C1A6
:103C0E000DF0000E0F6E200E0E6E000E116E050ED4
:103C1E00106E2AEC17F0010120EE05F09351D92613
:103C2E009451DA22DF6A950E4A6E010E4B6E590ED2
:103C3E004C6E100E4D6E91C14EF092C14FF057EC7E
:103C4E0022F039EF1EF0950E9C25D96EDA6A010E20
:103C5E00DA229C519325E16E000E9421E26EDFCFA5
:103C6E00E7FF9C2B950E01019C25D96EDA6A010E99
:103C7E00DA22DF50D8A446EF1EF048EF1EF02AEFEE
:103C8E001EF09B5112000F501010D8A451EF1EF0D1
:103C9E0053EF1EF055EF1EF0A6EF1EF0C29020EE71
:103CAE0003F00F50D9261050DA22DF50116E114654
:103CBE0011461146C0501118C70B1118C06E20EED8
:103CCE0004F00F50D9261050DA22DF50116EC0507A
:103CDE001118F80B1118C06E20EE05F00F50D926F2
:103CEE001050DA22DF50116E11461146C2501118D3
:103CFE00C30B1118C26E20EE05F00F50D9261050CE
:103D0E00DA22DF50EFEC1BF09D8C9E9CF28EF28C33
:103D1E000FC0D9FF10C0DAFFDECFC2F0DDCFC3F087
:103D2E000FC00CF010C00DF00EEC23F00FC00CF015
:103D3E0010C00DF0A2EC22F0C28053EF1EF0010E67
:103D4E00120027502810D8B4AFEF1EF0B1EF1EF0BE
:103D5E00BAEF1EF02B502C10D8A4B8EF1EF0BAEF0D
:103D6E001EF0BEEF1EF0010E2D6EFFEF1EF027C0EF
:103D7E0021F028C022F029C023F02AC024F0A8EC9C
:103D8E001FF02D6EE6EF1EF027C018F028C019F0B8
:103D9E002BC0F6FF2CC0F7FF000EF86E0F0EF76467
:103DAE0003D00800F55005D0F6CFE9FFF7CFEAFFB4
:103DBE00EF501A6EF5EC1FF02D6E2B4A2C2A2BC0ED
:103DCE00F6FF2CC0F7FF000EF86E0F0EF76403D04F
:103DDE000800F55005D0F6CFE9FFF7CFEAFFEF5018
:103DEE000009D8A4FDEF1EF0FFEF1EF0CBEF1EF082
:103DFE002D501200000E116E0DBE0AEF1FF008EFCF
:103E0E001FF010EF1FF00C6C0D1ED8B00D2A010E16
:103E1E00116E0FBE17EF1FF015EF1FF01BEF1FF007
:103E2E000E6C0F1ED8B00F2A0E500F10D8B422EF02
:103E3E001FF024EF1FF048EF1FF0010E106E2CEF55
:103E4E001FF0D8900E360F36102A0FAE31EF1FF03E
:103E5E0033EF1FF028EF1FF00E500C5C0F500D5873
:103E6E00D8A03CEF1FF03EEF1FF042EF1FF00E50B8
:103E7E000C5E0F500D5AD8900F320E32102E33EFBB
:103E8E001FF01150D8B44EEF1FF050EF1FF054EF4B
:103E9E001FF00C6C0D1ED8B00D2A0CC00CF00DC00E
:103EAE000DF0120020EE08F04D50D9264E50DA22B9
:103EBE00DF504F6EC6504F18F00B4F18C66E000EE7
:103ECE00376E000E386E800E396EBF0E3A6E4DC0D4
:103EDE00D9FF4EC0DAFFDECF4FF0DDCF50F04FC02E
:103EEE000CF050C00DF00E6A0F6A000E85EC15F046
:103EFE000CC01EF00DC01FF00EC020F00FC021F040
:103F0E00000E1A6E240E1B6E740E1C6E490E1D6E64
:103F1E00B8EC13F01AC033F01BC034F01CC035F0EF
:103F2E001DC036F040EC0DF033C043F034C044F009
:103F3E0035C045F036C046F0EEEC1AF04350C86E70
:103F4E0012002406D7EF1FF021C018F022C019F07E
:103F5E002450800F1A6E3DEC20F0F4EF1FF021C0BC
:103F6E0018F022C019F02450C00F1A6E3DEC20F04C
:103F7E00F4EF1FF021C018F022C019F02450940F56
:103F8E001A6E3DEC20F0F4EF1FF021C018F022C0A5
:103F9E0019F02450D40F1A6E3DEC20F0F4EF1FF000
:103FAE002350256E266A2650000AD8B4E1EF1FF082
:103FBE00F4EF1FF02550010AD8B4ABEF1FF0030A3F
:103FCE00D8B4B6EF1FF0010AD8B4C1EF1FF0070A3C
:103FDE00D8B4CCEF1FF0F4EF1FF01200000E206EDD
:103FEE0018501910D8A4FEEF1FF000EF20F004EFC8
:103FFE0020F0010E1F6E3BEF20F018C00CF019C020
:10400E000DF0010E0E6E5CEC1AF0000E206E2050BC
:10401E0018241B6E000E19201C6E020E1B240C6E33
:10402E00000E1C200D6E20C01DF01AC01EF01D2AA1
:10403E0023EF20F0D8901E321D2E21EF20F01E50BF
:10404E00010B0E6E5CEC1AF0202A070E206432EF84
:10405E0020F034EF20F00EEF20F018C015F019C04C
:10406E0016F044EC24F01F6E1F501200000E206E4E
:10407E0018501910D8A446EF20F048EF20F04CEF5E
:10408E0020F0010E1F6E83EF20F018C00CF019C047
:10409E000DF0000E0E6E5CEC1AF0000E206E20502D
:1040AE0018241B6E000E19201C6E020E1B240C6EA3
:1040BE00000E1C200D6E20C01DF01AC01EF01D2A11
:1040CE006BEF20F0D8901E321D2E69EF20F01E509F
:1040DE00010B0E6E5CEC1AF0202A070E20647AEFAC
:1040EE0020F07CEF20F056EF20F018C015F019C02C
:1040FE0016F044EC24F01F6E1F5012001C0EF66ECC
:10410E00490EF76E000EF86E01EE66F010EE2BF013
:10411E000900F5CFEEFFE550E150FAE1F20EF66E32
:10412E00490EF76E000EF86E00EEEEF010EE0FF088
:10413E000900F5CFEEFFE550E150FAE1400EF66EC4
:10414E004A0EF76E000EF86E00EE6DF010EE04F0F3
:10415E000900F5CFEEFFE550E150FAE101EE00F077
:10416E00660EEE6AE806FDE100EE80F06E0EEE6A77
:10417E00E806FDE100EE5FF00E0EEE6AE806FDE1E8
:10418E007390739200012FEF08F0632A5F0E016E99
:10419E00010E026E000E046E000E036EA4EC24F0EF
:1041AE000001EE6F6304D8A4DFEF20F0E1EF20F002
:1041BE00F3EF20F0420E016E010E026E090E046E38
:1041CE00600E036EC0EC21F00001EE6FBD50F00BDF
:1041DE000909BD6E0EEF21F0020E6318D8A4FAEF96
:1041EE0020F0FCEF20F00EEF21F0420E016E010EDA
:1041FE00026E440E046EC00E036EC0EC21F0000180
:10420E00EE6FBD50F00B0809BD6E000E636E12000E
:10421E0021BE14EF21F016EF21F01CEF21F020C08B
:10422E0025F021C026F020EF21F0000E266E000EA4
:10423E00256E000E246E000E236E32EF21F0000E5E
:10424E000D6E200E0C6E1CC00EF01DC00FF0C5ECD6
:10425E001CF0234A242A2550235C2450800A226E07
:10426E002650800A2258D8A03FEF21F041EF21F0CE
:10427E0026EF21F01EC015F01FC016F01CC017F05F
:10428E001DC018F0ECEC22F01200000E116E000EA4
:10429E00106E0E500F10D8B457EF21F059EF21F0D9
:1042AE0081EF21F0010E126E61EF21F0D8900E36E3
:1042BE000F36122A0FAE66EF21F068EF21F05DEF98
:1042CE0021F0D890103611360E500C5C0F500D5850
:1042DE00D8A074EF21F076EF21F07BEF21F00E5095
:1042EE000C5E0F500D5A1080D8900F320E32122ED7
:1042FE0068EF21F010C00CF011C00DF01200135039
:10430E001410D8B48DEF21F08FEF21F098EF21F03B
:10431E0016501710D8A496EF21F098EF21F09CEFCD
:10432E0021F0010E186EBEEF21F013C00FF014C075
:10433E0010F015C011F029EC24F0186E13C00CF01B
:10434E0014C00DF0B5EC24F0186EC2B2B1EF21F02E
:10435E00B3EF21F0ACEF21F013C00CF014C00DF050
:10436E0016C00EF017C00FF08CEC1DF0186E185022
:10437E00120001500210D8A4C7EF21F0C9EF21F0AE
:10438E00CBEF21F0F7EF21F003C006F004C007F0E9
:10439E0020EE03F00150D9260250DA22DF50D8A4C5
:1043AE00DBEF21F0DDEF21F0E3EF21F006C0BEFFE1
:1043BE0007C0BFFFC9EF21F020EE03F00150D92650
:1043CE000250DA22DE04D8A4EFEF21F0F1EF21F053
:1043DE00C9EF21F006C0BBFF07C0BCFFC9EF21F03B
:1043EE00010E120015501610D8B400EF22F002EF95
:1043FE0022F013EF22F015C0D9FF16C0DAFFDF301E
:10440E00E832E832070B176E070E176411EF22F031
:10441E0013EF22F017EF22F0010E186E2DEF22F09F
:10442E0015C00CF016C00DF092EC18F0186E15C0F9
:10443E000CF016C00DF015C0D9FF16C0DAFF000E35
:10444E00DFBE010E0E6E5CEC1AF0186E18501200E4
:10445E0044C048F045C049F043EF22F042C034F06A
:10446E0043C035F0480E366E000E376E46C038F03B
:10447E0047C039F030EC19F048C0F6FF49C0F7FFDD
:10448E00F86A0800F5500009D8A450EF22F052EF58
:10449E0022F035EF22F0000E436E000E426E120037
:1044AE004E0E506E000E516E4AC052F04BC053F07D
:1044BE00000E566E000E556E000E5D6E000E5C6E9A
:1044CE00520E426E000E436E4CC044F04DC045F08D
:1044DE00500E466E000E476E2FEC22F055504A24B9
:1044EE00D96E56504B20DA6EDF6A120059505A10B0
:1044FE00D8A484EF22F086EF22F088EF22F0A0EF0E
:10450E0022F059C04DF05AC04EF0C9EC0AF0AB9EE5
:10451E00948C948E59C00CF05AC00DF05BEC1CF0CC
:10452E0059C00CF05AC00DF071EC1BF0AB8E86EF3B
:10453E0022F0010E120020EE06F00C50D9260D507E
:10454E00DA22DFA0ADEF22F0AFEF22F0B3EF22F0D0
:10455E00C18AC188C6EF22F020EE06F00C50D92693
:10456E000D50DA22DFB0BEEF22F0C0EF22F0C4EF22
:10457E0022F0C19AC198C6EF22F0C19AC1981200DA
:10458E009D86A0869E96A196F28EF28C20EE04F069
:10459E000C50D9260D50DA22DECFBAF0DDCFBBF0AB
:1045AE0020EE02F00C50D9260D50DA22DECFB8F0F4
:1045BE00DDCFB9F020EE06F00C50D9260D50DA22E0
:1045CE00DECFB6F0DDCFB7F01200000E1B6E000E80
:1045DE001A6EFDEF22F019C00CF00D6A17C00EF026
:1045EE0018C00FF0C5EC1CF01A4A1B2A1A501524DD
:1045FE00D96E1B501620DA6EDF50196E1950D8A4E2
:10460E000BEF23F00DEF23F0F2EF22F0120020EE6D
:10461E0006F00C50D9260D50DA22DFA219EF23F046
:10462E001BEF23F01EEF23F0C08E2FEF23F020EEB2
:10463E0006F00C50D9260D50DA22DFB229EF23F006
:10464E002BEF23F02EEF23F0C09E2FEF23F0C08E22
:10465E001200860E0001DB6FA00EDA6FE491070EDA
:10466E00E26FE495E483E497160EE36FA20EDC6F1F
:10467E00470EDD6F000EE06F000EE16F000EDE6F75
:10468E00000EDF6FDA0E516E000E526EE5EC17F073
:10469E000001EE6F1200F0EC23F0FB0E196E000E0F
:1046AE001A6E0EEC24F0F90E196E000E1A6E0EEC48
:1046BE0024F0CA0E596E000E5A6E7DEC22F0EF0EEB
:1046CE00216E000E226EC6EC19F08A0E0F6E010ED0
:1046DE00106E4AEC1EF0120013BE80EF23F0135042
:1046EE0006E11204D8B07EEF23F080EF23F08EEFB8
:1046FE0023F012C014F013C015F0141E151E144A28
:10470E00152A14C012F015C013F092EF23F012C048
:10471E0012F013C013F0120015501610D8A49AEF11
:10472E0023F09CEF23F09EEF23F0B0EF23F015C0A3
:10473E000CF016C00DF0000E0E6E5CEC1AF0010EB1
:10474E0015240C6E000E16200D6E000E0E6E5CEC17
:10475E001AF0010E120015501610D8A4B9EF23F05E
:10476E00BBEF23F0BDEF23F0CFEF23F015C00CF01D
:10477E0016C00DF0010E0E6E5CEC1AF0010E152433
:10478E000C6E000E16200D6E000E0E6E5CEC1AF006
:10479E00010E1200C698C7B4D7EF23F0D9EF23F05D
:1047AE00EDEF23F0C7BADEEF23F0E0EF23F0EDEFED
:1047BE0023F0C9CFC8F0C7A0E7EF23F0E9EF23F04D
:1047CE00E2EF23F0C9CFC7F0EEEF23F0C750C68853
:1047DE001200250E0001CB6F800ECA6F000ECC6F3B
:1047EE00CD8BCD9DCD9FCF8BCF9DCF9F000ED26F0A
:1047FE00000ED36F000ED46F000ED56F000ED66F65
:10480E00000ED76F000ED86F000ED96F1200195020
:10481E001A10D8A415EF24F017EF24F019EF24F096
:10482E0027EF24F019C015F01AC016F0F9EC21F09C
:10483E00010E1924156E000E1A20166EF9EC21F0D9
:10484E00010E12000F501010D8A430EF24F032EFEA
:10485E0024F034EF24F042EF24F011C012F012468F
:10486E001246C2501218C30B1218C26E1150EFEC42
:10487E001BF032EF24F0010E1200010E15240C6E07
:10488E00000E16200D6E010E0E6E5CEC1AF000D0AE
:10489E0000D000F0010E15240C6E000E16200D6EC9
:1048AE00000E0E6E5CEC1AF0176E175012009E96EC
:1048BE000001B851B911D8B467EF24F069EF24F0B4
:1048CE0075EF24F002D875EF24F00500FA6EB8519A
:1048DE00FD6EB951FE6EFF6AFA50120012009E94E0
:1048EE000001C051C111D8B47FEF24F081EF24F044
:1048FE008DEF24F002D88DEF24F00500FA6EC05132
:10490E00FD6EC151FE6EFF6AFA5012001200800F4A
:10491E00810F820F830F840F890F8A0F8B0F8C0FDD
:10492E008D0F920F930F940F950F960F020A121A76
:09493E00222A0000000505000218
:1049480001500210D8A4ABEF24F0ADEF24F0AFEF84
:1049580024F0B3EF24F00450B36E03C0B2FF010E8D
:1049680012000C500D10D8A4BCEF24F0BEEF24F0B8
:10497800C0EF24F0C3EF24F0C282BEEF24F0010E92
:104988001200016EF2900150D8A4CDEF24F0CFEFC1
:1049980024F0D1EF24F0D1EF24F01200016EF29050
:1049A8000150D8A4DAEF24F0DCEF24F0DEEF24F095
:1049B800DEEF24F01200016EF2900150D8A4E7EF68
:1049C80024F0E9EF24F0EBEF24F0EBEF24F01200F1
:1049D800016EF2900150D8A4F4EF24F0F6EF24F021
:1049E800F8EF24F0F8EF24F01200010108030B138C
:0949F8001B232B333B102A020A99
:104A0200A19200019351B36E92C0B2FF12009E9028
:104A120000019951CF6E98C0CEFF1200F2940001AE
:104A22009D51D76E9CC0D6FF12009E9262C0CCFFF1
:104A3200120052EC23F012009486948812000101B5
:104A42000101A1961200F0921200F0901200F2926F
:104A520012009D981200A19012009E9C120012005A
:024A6200120040
:020000040030CA
:0E000000FF02091EFF8181FF0FC00FE00F40BD
:00000001FF
